{
  "contractName": "Betting",
  "abi": [
    {
      "constant": true,
      "inputs": [
        {
          "name": "",
          "type": "uint256"
        }
      ],
      "name": "amountInfo",
      "outputs": [
        {
          "name": "betAmountSuccees",
          "type": "uint256"
        },
        {
          "name": "betAmountFailure",
          "type": "uint256"
        }
      ],
      "payable": false,
      "stateMutability": "view",
      "type": "function"
    },
    {
      "constant": true,
      "inputs": [],
      "name": "nft",
      "outputs": [
        {
          "name": "",
          "type": "address"
        }
      ],
      "payable": false,
      "stateMutability": "view",
      "type": "function"
    },
    {
      "constant": true,
      "inputs": [],
      "name": "startTime",
      "outputs": [
        {
          "name": "",
          "type": "uint256"
        }
      ],
      "payable": false,
      "stateMutability": "view",
      "type": "function"
    },
    {
      "constant": true,
      "inputs": [
        {
          "name": "",
          "type": "uint256"
        },
        {
          "name": "",
          "type": "uint256"
        }
      ],
      "name": "failureUserList",
      "outputs": [
        {
          "name": "",
          "type": "address"
        }
      ],
      "payable": false,
      "stateMutability": "view",
      "type": "function"
    },
    {
      "constant": true,
      "inputs": [
        {
          "name": "",
          "type": "uint256"
        },
        {
          "name": "",
          "type": "address"
        }
      ],
      "name": "userInfo",
      "outputs": [
        {
          "name": "amount",
          "type": "uint256"
        },
        {
          "name": "side",
          "type": "bool"
        },
        {
          "name": "isBet",
          "type": "bool"
        }
      ],
      "payable": false,
      "stateMutability": "view",
      "type": "function"
    },
    {
      "constant": true,
      "inputs": [
        {
          "name": "",
          "type": "uint256"
        },
        {
          "name": "",
          "type": "uint256"
        }
      ],
      "name": "succeesUserList",
      "outputs": [
        {
          "name": "",
          "type": "address"
        }
      ],
      "payable": false,
      "stateMutability": "view",
      "type": "function"
    },
    {
      "constant": true,
      "inputs": [
        {
          "name": "",
          "type": "uint256"
        }
      ],
      "name": "tokenInfo",
      "outputs": [
        {
          "name": "timeStamp",
          "type": "uint256"
        },
        {
          "name": "level",
          "type": "uint256"
        },
        {
          "name": "token1Id",
          "type": "uint256"
        },
        {
          "name": "token2Id",
          "type": "uint256"
        },
        {
          "name": "id",
          "type": "uint256"
        },
        {
          "name": "initiator",
          "type": "address"
        },
        {
          "name": "result",
          "type": "bool"
        },
        {
          "name": "done",
          "type": "bool"
        }
      ],
      "payable": false,
      "stateMutability": "view",
      "type": "function"
    },
    {
      "constant": true,
      "inputs": [],
      "name": "betNumber",
      "outputs": [
        {
          "name": "",
          "type": "uint256"
        }
      ],
      "payable": false,
      "stateMutability": "view",
      "type": "function"
    },
    {
      "constant": true,
      "inputs": [],
      "name": "token",
      "outputs": [
        {
          "name": "",
          "type": "address"
        }
      ],
      "payable": false,
      "stateMutability": "view",
      "type": "function"
    },
    {
      "inputs": [
        {
          "name": "_NFTAddress",
          "type": "address"
        },
        {
          "name": "_tokenAddress",
          "type": "address"
        }
      ],
      "payable": false,
      "stateMutability": "nonpayable",
      "type": "constructor"
    },
    {
      "constant": false,
      "inputs": [
        {
          "name": "operator",
          "type": "address"
        },
        {
          "name": "from",
          "type": "address"
        },
        {
          "name": "tokenId",
          "type": "uint256"
        },
        {
          "name": "data",
          "type": "bytes"
        }
      ],
      "name": "onKIP17Received",
      "outputs": [
        {
          "name": "",
          "type": "bytes4"
        }
      ],
      "payable": false,
      "stateMutability": "nonpayable",
      "type": "function"
    },
    {
      "constant": false,
      "inputs": [
        {
          "name": "_token1Id",
          "type": "uint256"
        },
        {
          "name": "_token2Id",
          "type": "uint256"
        }
      ],
      "name": "createBet",
      "outputs": [],
      "payable": false,
      "stateMutability": "nonpayable",
      "type": "function"
    },
    {
      "constant": false,
      "inputs": [
        {
          "name": "_amount",
          "type": "uint256"
        },
        {
          "name": "_side",
          "type": "bool"
        },
        {
          "name": "_betNumber",
          "type": "uint256"
        }
      ],
      "name": "bet",
      "outputs": [],
      "payable": false,
      "stateMutability": "nonpayable",
      "type": "function"
    },
    {
      "constant": false,
      "inputs": [
        {
          "name": "_betNumber",
          "type": "uint256"
        }
      ],
      "name": "distribution",
      "outputs": [],
      "payable": false,
      "stateMutability": "nonpayable",
      "type": "function"
    },
    {
      "constant": true,
      "inputs": [
        {
          "name": "_betNumber",
          "type": "uint256"
        },
        {
          "name": "_player",
          "type": "address"
        }
      ],
      "name": "calculateRewardSuccees",
      "outputs": [
        {
          "name": "",
          "type": "uint256"
        }
      ],
      "payable": false,
      "stateMutability": "view",
      "type": "function"
    },
    {
      "constant": true,
      "inputs": [
        {
          "name": "_betNumber",
          "type": "uint256"
        },
        {
          "name": "_player",
          "type": "address"
        }
      ],
      "name": "calculateRewardFailure",
      "outputs": [
        {
          "name": "",
          "type": "uint256"
        }
      ],
      "payable": false,
      "stateMutability": "view",
      "type": "function"
    },
    {
      "constant": true,
      "inputs": [
        {
          "name": "_betNumber",
          "type": "uint256"
        }
      ],
      "name": "amountForSuccees",
      "outputs": [
        {
          "name": "",
          "type": "uint256"
        }
      ],
      "payable": false,
      "stateMutability": "view",
      "type": "function"
    },
    {
      "constant": true,
      "inputs": [
        {
          "name": "_betNumber",
          "type": "uint256"
        }
      ],
      "name": "amountForFailure",
      "outputs": [
        {
          "name": "",
          "type": "uint256"
        }
      ],
      "payable": false,
      "stateMutability": "view",
      "type": "function"
    },
    {
      "constant": true,
      "inputs": [
        {
          "name": "_betNumber",
          "type": "uint256"
        },
        {
          "name": "_amount",
          "type": "uint256"
        }
      ],
      "name": "oddsForSuccees",
      "outputs": [
        {
          "name": "",
          "type": "uint256"
        }
      ],
      "payable": false,
      "stateMutability": "view",
      "type": "function"
    },
    {
      "constant": true,
      "inputs": [
        {
          "name": "_betNumber",
          "type": "uint256"
        },
        {
          "name": "_amount",
          "type": "uint256"
        }
      ],
      "name": "oddsForFailure",
      "outputs": [
        {
          "name": "",
          "type": "uint256"
        }
      ],
      "payable": false,
      "stateMutability": "view",
      "type": "function"
    },
    {
      "constant": true,
      "inputs": [],
      "name": "getBettingInfo",
      "outputs": [
        {
          "components": [
            {
              "name": "timeStamp",
              "type": "uint256"
            },
            {
              "name": "level",
              "type": "uint256"
            },
            {
              "name": "token1Id",
              "type": "uint256"
            },
            {
              "name": "token2Id",
              "type": "uint256"
            },
            {
              "name": "id",
              "type": "uint256"
            },
            {
              "name": "initiator",
              "type": "address"
            },
            {
              "name": "result",
              "type": "bool"
            },
            {
              "name": "done",
              "type": "bool"
            }
          ],
          "name": "",
          "type": "tuple[]"
        }
      ],
      "payable": false,
      "stateMutability": "view",
      "type": "function"
    },
    {
      "constant": true,
      "inputs": [],
      "name": "getAmountInfo",
      "outputs": [
        {
          "components": [
            {
              "name": "betAmountSuccees",
              "type": "uint256"
            },
            {
              "name": "betAmountFailure",
              "type": "uint256"
            }
          ],
          "name": "",
          "type": "tuple[]"
        }
      ],
      "payable": false,
      "stateMutability": "view",
      "type": "function"
    }
  ],
  "bytecode": "0x608060405260006008553480156200001657600080fd5b5060405160408062002e748339810180604052620000389190810190620000f4565b816000806101000a81548173ffffffffffffffffffffffffffffffffffffffff021916908373ffffffffffffffffffffffffffffffffffffffff16021790555080600660006101000a81548173ffffffffffffffffffffffffffffffffffffffff021916908373ffffffffffffffffffffffffffffffffffffffff1602179055504260078190555050506200017d565b6000620000d6825162000135565b905092915050565b6000620000ec825162000149565b905092915050565b600080604083850312156200010857600080fd5b60006200011885828601620000de565b92505060206200012b85828601620000c8565b9150509250929050565b600062000142826200015d565b9050919050565b6000620001568262000135565b9050919050565b600073ffffffffffffffffffffffffffffffffffffffff82169050919050565b612ce7806200018d6000396000f3fe608060405234801561001057600080fd5b50600436106101375760003560e01c80639f0f8154116100b8578063cc33c8751161007c578063cc33c8751461039f578063dad3fdf2146103d6578063ddaad44a146103f4578063e82cb94714610424578063fc0c546a14610454578063fff058e61461047257610137565b80639f0f8154146102e75780639fb710e614610305578063a8735e5414610335578063aa8b067014610365578063c852987d1461038157610137565b806375171c3b116100ff57806375171c3b1461021b57806378e979251461024b5780638703d270146102695780638decaec01461029957806393f1a40b146102b557610137565b8063065cd50a1461013c5780630a64501a1461016d5780630ff1a58e1461019d57806347ccca02146101cd5780636745782b146101eb575b600080fd5b610156600480360361015191908101906120f5565b61048e565b6040516101649291906129b1565b60405180910390f35b610187600480360361018291908101906120f5565b6104b2565b604051610194919061295f565b60405180910390f35b6101b760048036036101b291908101906121d2565b6104d2565b6040516101c4919061295f565b60405180910390f35b6101d5610540565b6040516101e29190612842565b60405180910390f35b61020560048036036102009190810190612051565b610565565b6040516102129190612827565b60405180910390f35b61023560048036036102309190810190612147565b610585565b604051610242919061295f565b60405180910390f35b61025361067c565b604051610260919061295f565b60405180910390f35b610283600480360361027e91908101906121d2565b610682565b6040516102909190612731565b60405180910390f35b6102b360048036036102ae9190810190612183565b6106cd565b005b6102cf60048036036102ca9190810190612147565b610b5b565b6040516102de9392919061297a565b60405180910390f35b6102ef610bac565b6040516102fc91906127e3565b60405180910390f35b61031f600480360361031a91908101906121d2565b610c67565b60405161032c9190612731565b60405180910390f35b61034f600480360361034a91908101906121d2565b610cb2565b60405161035c919061295f565b60405180910390f35b61037f600480360361037a91908101906120f5565b610d20565b005b6103896115ae565b6040516103969190612805565b60405180910390f35b6103b960048036036103b491908101906120f5565b611714565b6040516103cd9897969594939291906129da565b60405180910390f35b6103de611796565b6040516103eb919061295f565b60405180910390f35b61040e600480360361040991908101906120f5565b61179c565b60405161041b919061295f565b60405180910390f35b61043e60048036036104399190810190612147565b6117bc565b60405161044b919061295f565b60405180910390f35b61045c6118b3565b6040516104699190612731565b60405180910390f35b61048c600480360361048791908101906121d2565b6118d9565b005b60026020528060005260406000206000915090508060000154908060010154905082565b600060026000838152602001908152602001600020600101549050919050565b6000610538610500836002600087815260200190815260200160002060010154611db090919063ffffffff16565b61052a60646002600088815260200190815260200160002060000154611e0590919063ffffffff16565b611e7590919063ffffffff16565b905092915050565b6000809054906101000a900473ffffffffffffffffffffffffffffffffffffffff1681565b60006040516105739061271c565b60405180910390209050949350505050565b6000806001600085815260200190815260200160002060008473ffffffffffffffffffffffffffffffffffffffff1673ffffffffffffffffffffffffffffffffffffffff168152602001908152602001600020600001549050600061061c600260008781526020019081526020016000206000015461060e606485611e0590919063ffffffff16565b611e7590919063ffffffff16565b9050600061066e61065f606461065185600260008c815260200190815260200160002060010154611e0590919063ffffffff16565b611e7590919063ffffffff16565b84611db090919063ffffffff16565b905080935050505092915050565b60075481565b6005602052816000526040600020818154811061069b57fe5b906000526020600020016000915091509054906101000a900473ffffffffffffffffffffffffffffffffffffffff1681565b600115156001600083815260200190815260200160002060003373ffffffffffffffffffffffffffffffffffffffff1673ffffffffffffffffffffffffffffffffffffffff16815260200190815260200160002060010160019054906101000a900460ff1615151415610775576040517f08c379a000000000000000000000000000000000000000000000000000000000815260040161076c906128ff565b60405180910390fd5b426107a16102586003600085815260200190815260200160002060000154611db090919063ffffffff16565b116107e1576040517f08c379a00000000000000000000000000000000000000000000000000000000081526004016107d89061293f565b60405180910390fd5b600660009054906101000a900473ffffffffffffffffffffffffffffffffffffffff1673ffffffffffffffffffffffffffffffffffffffff166323b872dd3330866040518463ffffffff1660e01b81526004016108409392919061274c565b602060405180830381600087803b15801561085a57600080fd5b505af115801561086e573d6000803e3d6000fd5b505050506040513d601f19601f8201168201806040525061089291908101906120cc565b50826001600083815260200190815260200160002060003373ffffffffffffffffffffffffffffffffffffffff1673ffffffffffffffffffffffffffffffffffffffff16815260200190815260200160002060000181905550816001600083815260200190815260200160002060003373ffffffffffffffffffffffffffffffffffffffff1673ffffffffffffffffffffffffffffffffffffffff16815260200190815260200160002060010160006101000a81548160ff021916908315150217905550600180600083815260200190815260200160002060003373ffffffffffffffffffffffffffffffffffffffff1673ffffffffffffffffffffffffffffffffffffffff16815260200190815260200160002060010160016101000a81548160ff021916908315150217905550600115158215151415610a8d576109f7836002600084815260200190815260200160002060000154611db090919063ffffffff16565b6002600083815260200190815260200160002060000181905550600460008281526020019081526020016000203390806001815401808255809150509060018203906000526020600020016000909192909190916101000a81548173ffffffffffffffffffffffffffffffffffffffff021916908373ffffffffffffffffffffffffffffffffffffffff16021790555050610b56565b600015158215151415610b5557610ac3836002600084815260200190815260200160002060010154611db090919063ffffffff16565b6002600083815260200190815260200160002060010181905550600560008281526020019081526020016000203390806001815401808255809150509060018203906000526020600020016000909192909190916101000a81548173ffffffffffffffffffffffffffffffffffffffff021916908373ffffffffffffffffffffffffffffffffffffffff160217905550505b5b505050565b6001602052816000526040600020602052806000526040600020600091509150508060000154908060010160009054906101000a900460ff16908060010160019054906101000a900460ff16905083565b606080600854604051908082528060200260200182016040528015610beb57816020015b610bd8611f20565b815260200190600190039081610bd05790505b50905060008060085490505b60018110610c5e576002600082815260200190815260200160002060405180604001604052908160008201548152602001600182015481525050838381518110610c3d57fe5b60200260200101819052508180600101925050808060019003915050610bf7565b50819250505090565b60046020528160005260406000208181548110610c8057fe5b906000526020600020016000915091509054906101000a900473ffffffffffffffffffffffffffffffffffffffff1681565b6000610d18610ce0836002600087815260200190815260200160002060000154611db090919063ffffffff16565b610d0a60646002600088815260200190815260200160002060010154611e0590919063ffffffff16565b611e7590919063ffffffff16565b905092915050565b42610d4b60786003600085815260200190815260200160002060000154611db090919063ffffffff16565b10610d8b576040517f08c379a0000000000000000000000000000000000000000000000000000000008152600401610d82906128bf565b60405180910390fd5b3373ffffffffffffffffffffffffffffffffffffffff166003600083815260200190815260200160002060050160009054906101000a900473ffffffffffffffffffffffffffffffffffffffff1673ffffffffffffffffffffffffffffffffffffffff1614610e2f576040517f08c379a0000000000000000000000000000000000000000000000000000000008152600401610e26906128df565b60405180910390fd5b6003600082815260200190815260200160002060050160159054906101000a900460ff1615610e93576040517f08c379a0000000000000000000000000000000000000000000000000000000008152600401610e8a9061287f565b60405180910390fd5b60016003600083815260200190815260200160002060050160156101000a81548160ff02191690831515021790555060008060009054906101000a900473ffffffffffffffffffffffffffffffffffffffff1673ffffffffffffffffffffffffffffffffffffffff166340d7f82c600360008581526020019081526020016000206002015460036000868152602001908152602001600020600301546040518363ffffffff1660e01b8152600401610f4c9291906129b1565b602060405180830381600087803b158015610f6657600080fd5b505af1158015610f7a573d6000803e3d6000fd5b505050506040513d601f19601f82011682018060405250610f9e919081019061211e565b905060008060009054906101000a900473ffffffffffffffffffffffffffffffffffffffff1673ffffffffffffffffffffffffffffffffffffffff1663d840e2b6600360008681526020019081526020016000206002015460036000878152602001908152602001600020600301546040518363ffffffff1660e01b815260040161102a9291906129b1565b60206040518083038186803b15801561104257600080fd5b505afa158015611056573d6000803e3d6000fd5b505050506040513d601f19601f8201168201806040525061107a91908101906120cc565b9050806003600085815260200190815260200160002060050160146101000a81548160ff0219169083151502179055506000809054906101000a900473ffffffffffffffffffffffffffffffffffffffff1673ffffffffffffffffffffffffffffffffffffffff166342842e0e303360036000888152602001908152602001600020600201546040518463ffffffff1660e01b815260040161111e93929190612783565b600060405180830381600087803b15801561113857600080fd5b505af115801561114c573d6000803e3d6000fd5b505050506000809054906101000a900473ffffffffffffffffffffffffffffffffffffffff1673ffffffffffffffffffffffffffffffffffffffff166342842e0e303360036000888152602001908152602001600020600301546040518463ffffffff1660e01b81526004016111c493929190612783565b600060405180830381600087803b1580156111de57600080fd5b505af11580156111f2573d6000803e3d6000fd5b505050506000809054906101000a900473ffffffffffffffffffffffffffffffffffffffff1673ffffffffffffffffffffffffffffffffffffffff166342842e0e3033856040518463ffffffff1660e01b815260040161125493929190612783565b600060405180830381600087803b15801561126e57600080fd5b505af1158015611282573d6000803e3d6000fd5b505050506001151581151514156114195760008090505b600460008581526020019081526020016000208054905081101561141357600061130b856004600088815260200190815260200160002084815481106112db57fe5b9060005260206000200160009054906101000a900473ffffffffffffffffffffffffffffffffffffffff16610585565b9050600660009054906101000a900473ffffffffffffffffffffffffffffffffffffffff1673ffffffffffffffffffffffffffffffffffffffff1663a9059cbb60046000888152602001908152602001600020848154811061136957fe5b9060005260206000200160009054906101000a900473ffffffffffffffffffffffffffffffffffffffff16836040518363ffffffff1660e01b81526004016113b29291906127ba565b602060405180830381600087803b1580156113cc57600080fd5b505af11580156113e0573d6000803e3d6000fd5b505050506040513d601f19601f8201168201806040525061140491908101906120cc565b50508080600101915050611299565b506115a9565b6000151581151514156115a85760008090505b60056000858152602001908152602001600020805490508110156115a657600061149e8560056000888152602001908152602001600020848154811061146e57fe5b9060005260206000200160009054906101000a900473ffffffffffffffffffffffffffffffffffffffff166117bc565b9050600660009054906101000a900473ffffffffffffffffffffffffffffffffffffffff1673ffffffffffffffffffffffffffffffffffffffff1663a9059cbb6005600088815260200190815260200160002084815481106114fc57fe5b9060005260206000200160009054906101000a900473ffffffffffffffffffffffffffffffffffffffff16836040518363ffffffff1660e01b81526004016115459291906127ba565b602060405180830381600087803b15801561155f57600080fd5b505af1158015611573573d6000803e3d6000fd5b505050506040513d601f19601f8201168201806040525061159791908101906120cc565b5050808060010191505061142c565b505b5b505050565b6060806008546040519080825280602002602001820160405280156115ed57816020015b6115da611f3a565b8152602001906001900390816115d25790505b50905060008060085490505b6001811061170b57600360008281526020019081526020016000206040518061010001604052908160008201548152602001600182015481526020016002820154815260200160038201548152602001600482015481526020016005820160009054906101000a900473ffffffffffffffffffffffffffffffffffffffff1673ffffffffffffffffffffffffffffffffffffffff1673ffffffffffffffffffffffffffffffffffffffff1681526020016005820160149054906101000a900460ff161515151581526020016005820160159054906101000a900460ff1615151515815250508383815181106116ea57fe5b602002602001018190525081806001019250508080600190039150506115f9565b50819250505090565b60036020528060005260406000206000915090508060000154908060010154908060020154908060030154908060040154908060050160009054906101000a900473ffffffffffffffffffffffffffffffffffffffff16908060050160149054906101000a900460ff16908060050160159054906101000a900460ff16905088565b60085481565b600060026000838152602001908152602001600020600001549050919050565b6000806001600085815260200190815260200160002060008473ffffffffffffffffffffffffffffffffffffffff1673ffffffffffffffffffffffffffffffffffffffff16815260200190815260200160002060000154905060006118536002600087815260200190815260200160002060010154611845606485611e0590919063ffffffff16565b611e7590919063ffffffff16565b905060006118a5611896606461188885600260008c815260200190815260200160002060000154611e0590919063ffffffff16565b611e7590919063ffffffff16565b84611db090919063ffffffff16565b905080935050505092915050565b600660009054906101000a900473ffffffffffffffffffffffffffffffffffffffff1681565b6118ef6001600854611db090919063ffffffff16565b6008819055504260036000600854815260200190815260200160002060000181905550816003600060085481526020019081526020016000206002018190555080600360006008548152602001908152602001600020600301819055503360036000600854815260200190815260200160002060050160006101000a81548173ffffffffffffffffffffffffffffffffffffffff021916908373ffffffffffffffffffffffffffffffffffffffff1602179055506000809054906101000a900473ffffffffffffffffffffffffffffffffffffffff1673ffffffffffffffffffffffffffffffffffffffff166310712130836040518263ffffffff1660e01b81526004016119fd919061295f565b60206040518083038186803b158015611a1557600080fd5b505afa158015611a29573d6000803e3d6000fd5b505050506040513d601f19601f82011682018060405250611a4d919081019061211e565b60036000600854815260200190815260200160002060010181905550600854600360006008548152602001908152602001600020600401819055506000809054906101000a900473ffffffffffffffffffffffffffffffffffffffff1673ffffffffffffffffffffffffffffffffffffffff166342842e0e3330856040518463ffffffff1660e01b8152600401611ae69392919061274c565b600060405180830381600087803b158015611b0057600080fd5b505af1158015611b14573d6000803e3d6000fd5b505050506000809054906101000a900473ffffffffffffffffffffffffffffffffffffffff1673ffffffffffffffffffffffffffffffffffffffff166342842e0e3330846040518463ffffffff1660e01b8152600401611b769392919061274c565b600060405180830381600087803b158015611b9057600080fd5b505af1158015611ba4573d6000803e3d6000fd5b50505050600660009054906101000a900473ffffffffffffffffffffffffffffffffffffffff1673ffffffffffffffffffffffffffffffffffffffff166323b872dd33306000809054906101000a900473ffffffffffffffffffffffffffffffffffffffff1673ffffffffffffffffffffffffffffffffffffffff16635ae25c2c6000809054906101000a900473ffffffffffffffffffffffffffffffffffffffff1673ffffffffffffffffffffffffffffffffffffffff166310712130896040518263ffffffff1660e01b8152600401611c7f919061295f565b60206040518083038186803b158015611c9757600080fd5b505afa158015611cab573d6000803e3d6000fd5b505050506040513d601f19601f82011682018060405250611ccf919081019061211e565b6040518263ffffffff1660e01b8152600401611ceb919061295f565b60206040518083038186803b158015611d0357600080fd5b505afa158015611d17573d6000803e3d6000fd5b505050506040513d601f19601f82011682018060405250611d3b919081019061211e565b6040518463ffffffff1660e01b8152600401611d599392919061274c565b602060405180830381600087803b158015611d7357600080fd5b505af1158015611d87573d6000803e3d6000fd5b505050506040513d601f19601f82011682018060405250611dab91908101906120cc565b505050565b600080828401905083811015611dfb576040517f08c379a0000000000000000000000000000000000000000000000000000000008152600401611df29061289f565b60405180910390fd5b8091505092915050565b600080831415611e185760009050611e6f565b6000828402905082848281611e2957fe5b0414611e6a576040517f08c379a0000000000000000000000000000000000000000000000000000000008152600401611e619061291f565b60405180910390fd5b809150505b92915050565b6000611eb783836040518060400160405280601a81526020017f536166654d6174683a206469766973696f6e206279207a65726f000000000000815250611ebf565b905092915050565b60008083118290611f06576040517f08c379a0000000000000000000000000000000000000000000000000000000008152600401611efd919061285d565b60405180910390fd5b506000838581611f1257fe5b049050809150509392505050565b604051806040016040528060008152602001600081525090565b6040518061010001604052806000815260200160008152602001600081526020016000815260200160008152602001600073ffffffffffffffffffffffffffffffffffffffff1681526020016000151581526020016000151581525090565b6000611fa58235612bb8565b905092915050565b6000611fb98235612bca565b905092915050565b6000611fcd8251612bca565b905092915050565b600082601f830112611fe657600080fd5b8135611ff9611ff482612a85565b612a58565b9150808252602083016020830185838301111561201557600080fd5b612020838284612c5a565b50505092915050565b60006120358235612bf6565b905092915050565b60006120498251612bf6565b905092915050565b6000806000806080858703121561206757600080fd5b600061207587828801611f99565b945050602061208687828801611f99565b935050604061209787828801612029565b925050606085013567ffffffffffffffff8111156120b457600080fd5b6120c087828801611fd5565b91505092959194509250565b6000602082840312156120de57600080fd5b60006120ec84828501611fc1565b91505092915050565b60006020828403121561210757600080fd5b600061211584828501612029565b91505092915050565b60006020828403121561213057600080fd5b600061213e8482850161203d565b91505092915050565b6000806040838503121561215a57600080fd5b600061216885828601612029565b925050602061217985828601611f99565b9150509250929050565b60008060006060848603121561219857600080fd5b60006121a686828701612029565b93505060206121b786828701611fad565b92505060406121c886828701612029565b9150509250925092565b600080604083850312156121e557600080fd5b60006121f385828601612029565b925050602061220485828601612029565b9150509250929050565b600061221a838361262d565b60408301905092915050565b6000612232838361265c565b6101008301905092915050565b61224881612c00565b82525050565b61225781612b44565b82525050565b61226681612b44565b82525050565b600061227782612acb565b6122818185612b06565b935061228c83612ab1565b60005b828110156122ba576122a286835161220e565b95506122ad82612aec565b915060018101905061228f565b50849250505092915050565b60006122d182612ad6565b6122db8185612b17565b93506122e683612abe565b60005b82811015612314576122fc868351612226565b955061230782612af9565b91506001810190506122e9565b50849250505092915050565b61232981612b56565b82525050565b61233881612b56565b82525050565b61234781612b62565b82525050565b61235681612c12565b82525050565b600061236782612ae1565b6123718185612b28565b9350612381818560208601612c69565b61238a81612c9c565b840191505092915050565b60006123a2601883612b28565b91507f43616e6e6f74206469737472696275746520616761696e2100000000000000006000830152602082019050919050565b60006123e2601b83612b28565b91507f536166654d6174683a206164646974696f6e206f766572666c6f7700000000006000830152602082019050919050565b6000612422603783612b28565b91507f646973747269627574696f6e20697320616c6c6f77656420616674657220313060008301527f206d696e75746573206f70656e65642062657474696e670000000000000000006020830152604082019050919050565b6000612488602483612b28565b91507f4f6e6c7920696e69746961746f722063616e2063616c6c20646973747269627560008301527f74696f6e000000000000000000000000000000000000000000000000000000006020830152604082019050919050565b60006124ee602e83612b39565b91507f6f6e4b49503137526563656976656428616464726573732c616464726573732c60008301527f75696e743235362c6279746573290000000000000000000000000000000000006020830152602e82019050919050565b6000612554601c83612b28565b91507f796f7520616c72656164792062657420696e20746869732067616d65000000006000830152602082019050919050565b6000612594602183612b28565b91507f536166654d6174683a206d756c7469706c69636174696f6e206f766572666c6f60008301527f77000000000000000000000000000000000000000000000000000000000000006020830152604082019050919050565b60006125fa601683612b28565b91507f746869732062657474696e6720697320636c6f736564000000000000000000006000830152602082019050919050565b60408201600082015161264360008501826126fe565b50602082015161265660208501826126fe565b50505050565b6101008201600082015161267360008501826126fe565b50602082015161268660208501826126fe565b50604082015161269960408501826126fe565b5060608201516126ac60608501826126fe565b5060808201516126bf60808501826126fe565b5060a08201516126d260a085018261224e565b5060c08201516126e560c0850182612320565b5060e08201516126f860e0850182612320565b50505050565b61270781612bae565b82525050565b61271681612bae565b82525050565b6000612727826124e1565b9150819050919050565b6000602082019050612746600083018461225d565b92915050565b6000606082019050612761600083018661223f565b61276e602083018561225d565b61277b604083018461270d565b949350505050565b6000606082019050612798600083018661225d565b6127a5602083018561223f565b6127b2604083018461270d565b949350505050565b60006040820190506127cf600083018561225d565b6127dc602083018461270d565b9392505050565b600060208201905081810360008301526127fd818461226c565b905092915050565b6000602082019050818103600083015261281f81846122c6565b905092915050565b600060208201905061283c600083018461233e565b92915050565b6000602082019050612857600083018461234d565b92915050565b60006020820190508181036000830152612877818461235c565b905092915050565b6000602082019050818103600083015261289881612395565b9050919050565b600060208201905081810360008301526128b8816123d5565b9050919050565b600060208201905081810360008301526128d881612415565b9050919050565b600060208201905081810360008301526128f88161247b565b9050919050565b6000602082019050818103600083015261291881612547565b9050919050565b6000602082019050818103600083015261293881612587565b9050919050565b60006020820190508181036000830152612958816125ed565b9050919050565b6000602082019050612974600083018461270d565b92915050565b600060608201905061298f600083018661270d565b61299c602083018561232f565b6129a9604083018461232f565b949350505050565b60006040820190506129c6600083018561270d565b6129d3602083018461270d565b9392505050565b6000610100820190506129f0600083018b61270d565b6129fd602083018a61270d565b612a0a604083018961270d565b612a17606083018861270d565b612a24608083018761270d565b612a3160a083018661225d565b612a3e60c083018561232f565b612a4b60e083018461232f565b9998505050505050505050565b6000604051905081810181811067ffffffffffffffff82111715612a7b57600080fd5b8060405250919050565b600067ffffffffffffffff821115612a9c57600080fd5b601f19601f8301169050602081019050919050565b6000602082019050919050565b6000602082019050919050565b600081519050919050565b600081519050919050565b600081519050919050565b6000602082019050919050565b6000602082019050919050565b600082825260208201905092915050565b600082825260208201905092915050565b600082825260208201905092915050565b600081905092915050565b6000612b4f82612b8e565b9050919050565b60008115159050919050565b60007fffffffff0000000000000000000000000000000000000000000000000000000082169050919050565b600073ffffffffffffffffffffffffffffffffffffffff82169050919050565b6000819050919050565b6000612bc382612bd6565b9050919050565b60008115159050919050565b600073ffffffffffffffffffffffffffffffffffffffff82169050919050565b6000819050919050565b6000612c0b82612c36565b9050919050565b6000612c1d82612c24565b9050919050565b6000612c2f82612b8e565b9050919050565b6000612c4182612c48565b9050919050565b6000612c5382612b8e565b9050919050565b82818337600083830152505050565b60005b83811015612c87578082015181840152602081019050612c6c565b83811115612c96576000848401525b50505050565b6000601f19601f830116905091905056fea265627a7a723058201371b718d3729140c5e4af5018a3b74d5674bdd45b4ad9e25f6768bddc755fec6c6578706572696d656e74616cf50037",
  "source": "pragma solidity ^0.5.6;\npragma experimental ABIEncoderV2;\n\nimport \"@klaytn/contracts/token/KIP7/KIP7.sol\";\nimport \"@klaytn/contracts/math/SafeMath.sol\";\nimport \"@klaytn/contracts/token/KIP17/IKIP17Receiver.sol\";\nimport \"./NFT.sol\";\n\n\ncontract Betting is IKIP17Receiver{\n\n    using SafeMath for uint256;\n\n    NFT public nft;\n\n    struct user {\n        uint256 amount;\n        bool side;\n        bool isBet;\n    }\n\n    struct amount {\n        uint256 betAmountSuccees;\n        uint256 betAmountFailure;\n    }\n\n    struct tokenPair {\n        uint256 timeStamp;\n        uint256 level;\n        uint256 token1Id;\n        uint256 token2Id;\n        uint256 id;\n        address initiator;\n        bool result;\n        bool done;\n    }\n \n    // iteration   \n\n    mapping(uint256 => mapping(address => user)) public userInfo;\n    mapping(uint256 => amount) public amountInfo;\n    mapping(uint256 => tokenPair) public tokenInfo;\n    mapping(uint256 => address[]) public succeesUserList;\n    mapping(uint256 => address[]) public failureUserList;\n\n    address public token; // uru\n    uint256 public startTime; //    \n    uint256 public betNumber = 0; //       \n\n    constructor (NFT _NFTAddress, address _tokenAddress) public {\n        nft = _NFTAddress;\n        token = _tokenAddress;\n        startTime = block.timestamp;\n    }\n\n    function onKIP17Received(\n        address operator,\n        address from,\n        uint256 tokenId,\n        bytes memory data\n    ) public returns (bytes4) {\n        return bytes4(keccak256(\"onKIP17Received(address,address,uint256,bytes)\"));\n    }\n\n    function createBet(uint256 _token1Id, uint256 _token2Id) public {\n        betNumber = betNumber.add(1);\n        tokenInfo[betNumber].timeStamp = block.timestamp;\n        tokenInfo[betNumber].token1Id = _token1Id;\n        tokenInfo[betNumber].token2Id = _token2Id;\n        tokenInfo[betNumber].initiator = msg.sender;\n        tokenInfo[betNumber].level = nft.getWeaponLevel(_token1Id);\n        tokenInfo[betNumber].id = betNumber;\n\n        nft.safeTransferFrom(msg.sender, address(this), _token1Id);\n        nft.safeTransferFrom(msg.sender, address(this), _token2Id);\n        KIP7(token).transferFrom(msg.sender, address(this), nft.tokenToCompound(nft.getWeaponLevel(_token1Id)));\n    }\n\n    function bet(uint256 _amount, bool _side, uint256 _betNumber) public {\n        require(userInfo[_betNumber][msg.sender].isBet != true, \"you already bet in this game\");\n        require(tokenInfo[_betNumber].timeStamp.add(600) > block.timestamp, \"this betting is closed\");\n\n        // approve !\n        KIP7(token).transferFrom(msg.sender, address(this), _amount);\n\n        userInfo[_betNumber][msg.sender].amount = _amount;\n        userInfo[_betNumber][msg.sender].side = _side;\n        userInfo[_betNumber][msg.sender].isBet = true;\n\n        if (_side == true) {\n            amountInfo[_betNumber].betAmountSuccees = amountInfo[_betNumber].betAmountSuccees.add(_amount);\n            succeesUserList[_betNumber].push(msg.sender);\n        } else if (_side == false) {\n            amountInfo[_betNumber].betAmountFailure = amountInfo[_betNumber].betAmountFailure.add(_amount);\n            failureUserList[_betNumber].push(msg.sender);\n        }\n\n    }\n\n    function distribution(uint256 _betNumber) public {\n        require(tokenInfo[_betNumber].timeStamp.add(120) < block.timestamp, \"distribution is allowed after 10 minutes opened betting\");\n        require(tokenInfo[_betNumber].initiator == msg.sender, \"Only initiator can call distribution\");\n        require(!tokenInfo[_betNumber].done, \"Cannot distribute again!\");\n        tokenInfo[_betNumber].done = true;\n\n        uint256 newTokenId = nft.compoundWeapon(tokenInfo[_betNumber].token1Id, tokenInfo[_betNumber].token2Id);\n        bool betResult = nft.getCompoundResult(tokenInfo[_betNumber].token1Id, tokenInfo[_betNumber].token2Id);\n        tokenInfo[_betNumber].result = betResult;\n        \n        nft.safeTransferFrom(address(this), msg.sender, tokenInfo[_betNumber].token1Id);  \n        nft.safeTransferFrom(address(this), msg.sender, tokenInfo[_betNumber].token2Id); \n        nft.safeTransferFrom(address(this), msg.sender, newTokenId);   \n\n        if (betResult == true) {\n            for (uint256 i = 0; i < succeesUserList[_betNumber].length; i++) {\n                uint256 reward = calculateRewardSuccees(_betNumber, succeesUserList[_betNumber][i]);\n                KIP7(token).transfer(succeesUserList[_betNumber][i], reward);\n            }\n        } else if (betResult == false) {\n            for (uint256 i = 0; i < failureUserList[_betNumber].length; i++) {\n                uint256 reward = calculateRewardFailure(_betNumber, failureUserList[_betNumber][i]);\n                KIP7(token).transfer(failureUserList[_betNumber][i], reward);\n            }\n        }\n    }\n\n    //      \n    function calculateRewardSuccees(uint256 _betNumber, address _player) public view returns (uint256) {\n        uint256 value = userInfo[_betNumber][_player].amount;\n        uint256 portion = value.mul(100).div(amountInfo[_betNumber].betAmountSuccees);\n        uint256 reward = value.add(amountInfo[_betNumber].betAmountFailure.mul(portion).div(100));\n        return reward;\n    }\n\n    function calculateRewardFailure(uint256 _betNumber, address _player) public view returns (uint256) {\n        uint256 value = userInfo[_betNumber][_player].amount;\n        uint256 portion = value.mul(100).div(amountInfo[_betNumber].betAmountFailure);\n        uint256 reward = value.add(amountInfo[_betNumber].betAmountSuccees.mul(portion).div(100));\n        return reward;\n    }\n    \n    // assist function\n\n    //     \n    function amountForSuccees(uint256 _betNumber) public view returns (uint256) {\n        return amountInfo[_betNumber].betAmountSuccees;\n    }\n    \n    function amountForFailure(uint256 _betNumber) public view returns (uint256) {\n        return amountInfo[_betNumber].betAmountFailure;\n    }\n\n    //   (%)\n    function oddsForSuccees(uint256 _betNumber, uint256 _amount) public view returns (uint256) {\n        return amountInfo[_betNumber].betAmountFailure.mul(100).div(amountInfo[_betNumber].betAmountSuccees.add(_amount));\n    }\n\n    function oddsForFailure(uint256 _betNumber, uint256 _amount) public view returns (uint256) {\n        return amountInfo[_betNumber].betAmountSuccees.mul(100).div(amountInfo[_betNumber].betAmountFailure.add(_amount));\n    }\n\n    function getBettingInfo() public view returns (tokenPair[] memory){        \n        tokenPair[] memory tempBet = new tokenPair[](betNumber);\n        uint256 count;\n        for(uint i = betNumber; i >= 1; i--){\n            tempBet[count] = tokenInfo[i];\n            count++;\n        }\n        return tempBet;\n    }\n\n    function getAmountInfo() public view returns (amount[] memory){   \n        amount[] memory tempAmount = new amount[](betNumber);\n        uint256 count;\n        for(uint i = betNumber; i >= 1; i--){\n            tempAmount[count] = amountInfo[i];\n            count++;\n        }\n        return tempAmount;\n    }\n}",
  "sourcePath": "/Users/jhka/Documents/fdongfdong/klaytn_swap_project/beb-03-DND/contract/contracts/betting.sol",
  "compiler": {
    "name": "solc",
    "version": "0.5.6+commit.b259423e.Emscripten.clang"
  },
  "schemaVersion": "3.3.3",
  "updatedAt": "2022-07-24T12:43:09.760Z",
  "devdoc": {
    "methods": {}
  },
  "userdoc": {
    "methods": {}
  }
}