{
  "contractName": "NFT",
  "abi": [
    {
      "constant": true,
      "inputs": [
        {
          "name": "interfaceId",
          "type": "bytes4"
        }
      ],
      "name": "supportsInterface",
      "outputs": [
        {
          "name": "",
          "type": "bool"
        }
      ],
      "payable": false,
      "stateMutability": "view",
      "type": "function"
    },
    {
      "constant": true,
      "inputs": [],
      "name": "name",
      "outputs": [
        {
          "name": "",
          "type": "string"
        }
      ],
      "payable": false,
      "stateMutability": "view",
      "type": "function"
    },
    {
      "constant": true,
      "inputs": [
        {
          "name": "tokenId",
          "type": "uint256"
        }
      ],
      "name": "getApproved",
      "outputs": [
        {
          "name": "",
          "type": "address"
        }
      ],
      "payable": false,
      "stateMutability": "view",
      "type": "function"
    },
    {
      "constant": false,
      "inputs": [
        {
          "name": "to",
          "type": "address"
        },
        {
          "name": "tokenId",
          "type": "uint256"
        }
      ],
      "name": "approve",
      "outputs": [],
      "payable": false,
      "stateMutability": "nonpayable",
      "type": "function"
    },
    {
      "constant": true,
      "inputs": [],
      "name": "totalSupply",
      "outputs": [
        {
          "name": "",
          "type": "uint256"
        }
      ],
      "payable": false,
      "stateMutability": "view",
      "type": "function"
    },
    {
      "constant": true,
      "inputs": [
        {
          "name": "",
          "type": "uint256"
        }
      ],
      "name": "tokenToFixDurability",
      "outputs": [
        {
          "name": "",
          "type": "uint256"
        }
      ],
      "payable": false,
      "stateMutability": "view",
      "type": "function"
    },
    {
      "constant": false,
      "inputs": [
        {
          "name": "from",
          "type": "address"
        },
        {
          "name": "to",
          "type": "address"
        },
        {
          "name": "tokenId",
          "type": "uint256"
        }
      ],
      "name": "transferFrom",
      "outputs": [],
      "payable": false,
      "stateMutability": "nonpayable",
      "type": "function"
    },
    {
      "constant": true,
      "inputs": [
        {
          "name": "owner",
          "type": "address"
        },
        {
          "name": "index",
          "type": "uint256"
        }
      ],
      "name": "tokenOfOwnerByIndex",
      "outputs": [
        {
          "name": "",
          "type": "uint256"
        }
      ],
      "payable": false,
      "stateMutability": "view",
      "type": "function"
    },
    {
      "constant": false,
      "inputs": [
        {
          "name": "from",
          "type": "address"
        },
        {
          "name": "to",
          "type": "address"
        },
        {
          "name": "tokenId",
          "type": "uint256"
        }
      ],
      "name": "safeTransferFrom",
      "outputs": [],
      "payable": false,
      "stateMutability": "nonpayable",
      "type": "function"
    },
    {
      "constant": true,
      "inputs": [
        {
          "name": "index",
          "type": "uint256"
        }
      ],
      "name": "tokenByIndex",
      "outputs": [
        {
          "name": "",
          "type": "uint256"
        }
      ],
      "payable": false,
      "stateMutability": "view",
      "type": "function"
    },
    {
      "constant": true,
      "inputs": [
        {
          "name": "",
          "type": "uint256"
        }
      ],
      "name": "weapons",
      "outputs": [
        {
          "name": "weaponType",
          "type": "uint256"
        },
        {
          "name": "weaponLevel",
          "type": "uint256"
        },
        {
          "name": "durability",
          "type": "uint256"
        },
        {
          "name": "enchant",
          "type": "uint256"
        }
      ],
      "payable": false,
      "stateMutability": "view",
      "type": "function"
    },
    {
      "constant": true,
      "inputs": [
        {
          "name": "",
          "type": "uint256"
        }
      ],
      "name": "tokenToCompound",
      "outputs": [
        {
          "name": "",
          "type": "uint256"
        }
      ],
      "payable": false,
      "stateMutability": "view",
      "type": "function"
    },
    {
      "constant": true,
      "inputs": [
        {
          "name": "tokenId",
          "type": "uint256"
        }
      ],
      "name": "ownerOf",
      "outputs": [
        {
          "name": "",
          "type": "address"
        }
      ],
      "payable": false,
      "stateMutability": "view",
      "type": "function"
    },
    {
      "constant": true,
      "inputs": [
        {
          "name": "owner",
          "type": "address"
        }
      ],
      "name": "balanceOf",
      "outputs": [
        {
          "name": "",
          "type": "uint256"
        }
      ],
      "payable": false,
      "stateMutability": "view",
      "type": "function"
    },
    {
      "constant": true,
      "inputs": [],
      "name": "symbol",
      "outputs": [
        {
          "name": "",
          "type": "string"
        }
      ],
      "payable": false,
      "stateMutability": "view",
      "type": "function"
    },
    {
      "constant": false,
      "inputs": [
        {
          "name": "to",
          "type": "address"
        },
        {
          "name": "approved",
          "type": "bool"
        }
      ],
      "name": "setApprovalForAll",
      "outputs": [],
      "payable": false,
      "stateMutability": "nonpayable",
      "type": "function"
    },
    {
      "constant": true,
      "inputs": [
        {
          "name": "",
          "type": "uint256"
        },
        {
          "name": "",
          "type": "uint256"
        }
      ],
      "name": "compoundResult",
      "outputs": [
        {
          "name": "",
          "type": "bool"
        }
      ],
      "payable": false,
      "stateMutability": "view",
      "type": "function"
    },
    {
      "constant": true,
      "inputs": [
        {
          "name": "",
          "type": "uint256"
        }
      ],
      "name": "tokenToFixEnchant",
      "outputs": [
        {
          "name": "",
          "type": "uint256"
        }
      ],
      "payable": false,
      "stateMutability": "view",
      "type": "function"
    },
    {
      "constant": false,
      "inputs": [
        {
          "name": "from",
          "type": "address"
        },
        {
          "name": "to",
          "type": "address"
        },
        {
          "name": "tokenId",
          "type": "uint256"
        },
        {
          "name": "_data",
          "type": "bytes"
        }
      ],
      "name": "safeTransferFrom",
      "outputs": [],
      "payable": false,
      "stateMutability": "nonpayable",
      "type": "function"
    },
    {
      "constant": true,
      "inputs": [
        {
          "name": "tokenId",
          "type": "uint256"
        }
      ],
      "name": "tokenURI",
      "outputs": [
        {
          "name": "",
          "type": "string"
        }
      ],
      "payable": false,
      "stateMutability": "view",
      "type": "function"
    },
    {
      "constant": true,
      "inputs": [
        {
          "name": "",
          "type": "uint256"
        }
      ],
      "name": "tokenToFix",
      "outputs": [
        {
          "name": "",
          "type": "uint256"
        }
      ],
      "payable": false,
      "stateMutability": "view",
      "type": "function"
    },
    {
      "constant": true,
      "inputs": [
        {
          "name": "",
          "type": "uint256"
        }
      ],
      "name": "percentage",
      "outputs": [
        {
          "name": "",
          "type": "uint256"
        }
      ],
      "payable": false,
      "stateMutability": "view",
      "type": "function"
    },
    {
      "constant": true,
      "inputs": [
        {
          "name": "owner",
          "type": "address"
        },
        {
          "name": "operator",
          "type": "address"
        }
      ],
      "name": "isApprovedForAll",
      "outputs": [
        {
          "name": "",
          "type": "bool"
        }
      ],
      "payable": false,
      "stateMutability": "view",
      "type": "function"
    },
    {
      "inputs": [
        {
          "name": "_token",
          "type": "address"
        }
      ],
      "payable": false,
      "stateMutability": "nonpayable",
      "type": "constructor"
    },
    {
      "anonymous": false,
      "inputs": [
        {
          "indexed": false,
          "name": "weaponId",
          "type": "uint256"
        },
        {
          "indexed": false,
          "name": "weaponType",
          "type": "uint256"
        },
        {
          "indexed": false,
          "name": "weaponLevel",
          "type": "uint256"
        }
      ],
      "name": "NewWeapon",
      "type": "event"
    },
    {
      "anonymous": false,
      "inputs": [
        {
          "indexed": true,
          "name": "from",
          "type": "address"
        },
        {
          "indexed": true,
          "name": "to",
          "type": "address"
        },
        {
          "indexed": true,
          "name": "tokenId",
          "type": "uint256"
        }
      ],
      "name": "Transfer",
      "type": "event"
    },
    {
      "anonymous": false,
      "inputs": [
        {
          "indexed": true,
          "name": "owner",
          "type": "address"
        },
        {
          "indexed": true,
          "name": "approved",
          "type": "address"
        },
        {
          "indexed": true,
          "name": "tokenId",
          "type": "uint256"
        }
      ],
      "name": "Approval",
      "type": "event"
    },
    {
      "anonymous": false,
      "inputs": [
        {
          "indexed": true,
          "name": "owner",
          "type": "address"
        },
        {
          "indexed": true,
          "name": "operator",
          "type": "address"
        },
        {
          "indexed": false,
          "name": "approved",
          "type": "bool"
        }
      ],
      "name": "ApprovalForAll",
      "type": "event"
    },
    {
      "constant": false,
      "inputs": [
        {
          "name": "recipient",
          "type": "address"
        },
        {
          "name": "_weaponLevel",
          "type": "uint256"
        }
      ],
      "name": "mint",
      "outputs": [
        {
          "name": "",
          "type": "uint256"
        }
      ],
      "payable": false,
      "stateMutability": "nonpayable",
      "type": "function"
    },
    {
      "constant": false,
      "inputs": [],
      "name": "buyBasicWeapon",
      "outputs": [
        {
          "name": "",
          "type": "uint256"
        }
      ],
      "payable": false,
      "stateMutability": "nonpayable",
      "type": "function"
    },
    {
      "constant": false,
      "inputs": [
        {
          "name": "_weaponLevel",
          "type": "uint256"
        }
      ],
      "name": "createRandomWeapon",
      "outputs": [],
      "payable": false,
      "stateMutability": "nonpayable",
      "type": "function"
    },
    {
      "constant": true,
      "inputs": [],
      "name": "createRandomNum",
      "outputs": [
        {
          "name": "",
          "type": "uint256"
        }
      ],
      "payable": false,
      "stateMutability": "view",
      "type": "function"
    },
    {
      "constant": false,
      "inputs": [
        {
          "name": "_weapon1Id",
          "type": "uint256"
        },
        {
          "name": "_weapon2Id",
          "type": "uint256"
        }
      ],
      "name": "compoundWeapon",
      "outputs": [
        {
          "name": "",
          "type": "uint256"
        }
      ],
      "payable": false,
      "stateMutability": "nonpayable",
      "type": "function"
    },
    {
      "constant": true,
      "inputs": [
        {
          "name": "_weapon1Id",
          "type": "uint256"
        },
        {
          "name": "_weapon2Id",
          "type": "uint256"
        }
      ],
      "name": "getCompoundResult",
      "outputs": [
        {
          "name": "",
          "type": "bool"
        }
      ],
      "payable": false,
      "stateMutability": "view",
      "type": "function"
    },
    {
      "constant": true,
      "inputs": [
        {
          "name": "_weaponId",
          "type": "uint256"
        }
      ],
      "name": "getWeaponLevel",
      "outputs": [
        {
          "name": "",
          "type": "uint256"
        }
      ],
      "payable": false,
      "stateMutability": "view",
      "type": "function"
    },
    {
      "constant": false,
      "inputs": [
        {
          "name": "_weaponId",
          "type": "uint256"
        }
      ],
      "name": "stakingWeapon",
      "outputs": [],
      "payable": false,
      "stateMutability": "nonpayable",
      "type": "function"
    },
    {
      "constant": false,
      "inputs": [
        {
          "name": "_weaponId",
          "type": "uint256"
        }
      ],
      "name": "fixWeaponDurability",
      "outputs": [],
      "payable": false,
      "stateMutability": "nonpayable",
      "type": "function"
    },
    {
      "constant": false,
      "inputs": [
        {
          "name": "_weaponId",
          "type": "uint256"
        }
      ],
      "name": "fixWeaponEnchant",
      "outputs": [],
      "payable": false,
      "stateMutability": "nonpayable",
      "type": "function"
    }
  ],
  "bytecode": "0x60806040526010600d55600d54600a0a600e553480156200001f57600080fd5b5060405160208062004502833981018060405260208110156200004157600080fd5b81019080805190602001909291905050506040518060400160405280600a81526020017f444e442d574541504f4e000000000000000000000000000000000000000000008152506040518060400160405280600681526020017f574541504f4e00000000000000000000000000000000000000000000000000008152508181620000d86301ffc9a760e01b6200040f60201b60201c565b620000f06380ac58cd60e01b6200040f60201b60201c565b6200010863780e9d6360e01b6200040f60201b60201c565b81600990805190602001906200012092919062000518565b5080600a90805190602001906200013992919062000518565b5062000152635b5e139f60e01b6200040f60201b60201c565b505050506063600f6000600981106200016757fe5b0181905550604f600f6001600981106200017d57fe5b01819055506045600f6002600981106200019357fe5b01819055506031600f600360098110620001a957fe5b01819055506027600f600460098110620001bf57fe5b0181905550601d600f600560098110620001d557fe5b01819055506013600f600660098110620001eb57fe5b01819055506009600f6007600981106200020157fe5b01819055506004600f6008600981106200021757fe5b0181905550603260186000600981106200022d57fe5b0181905550606460186001600981106200024357fe5b018190555060c860186002600981106200025957fe5b018190555061012c60186003600981106200027057fe5b01819055506101f460186004600981106200028757fe5b01819055506102bc60186005600981106200029e57fe5b01819055506103e86018600660098110620002b557fe5b0181905550610bb86018600760098110620002cc57fe5b01819055506113886018600860098110620002e357fe5b0181905550600a60346000600a8110620002f957fe5b0181905550601460346001600a81106200030f57fe5b0181905550601e60346002600a81106200032557fe5b0181905550603260346003600a81106200033b57fe5b0181905550605060346004600a81106200035157fe5b0181905550606e60346005600a81106200036757fe5b018190555060be60346006600a81106200037d57fe5b018190555061012c60346007600a81106200039457fe5b01819055506101ea60346008600a8110620003ab57fe5b01819055506102ee60346009600a8110620003c257fe5b018190555080603e60006101000a81548173ffffffffffffffffffffffffffffffffffffffff021916908373ffffffffffffffffffffffffffffffffffffffff16021790555050620005c7565b63ffffffff60e01b817bffffffffffffffffffffffffffffffffffffffffffffffffffffffff19161415620004ac576040517f08c379a000000000000000000000000000000000000000000000000000000000815260040180806020018281038252601b8152602001807f4b495031333a20696e76616c696420696e74657266616365206964000000000081525060200191505060405180910390fd5b6001600080837bffffffffffffffffffffffffffffffffffffffffffffffffffffffff19167bffffffffffffffffffffffffffffffffffffffffffffffffffffffff1916815260200190815260200160002060006101000a81548160ff02191690831515021790555050565b828054600181600116156101000203166002900490600052602060002090601f016020900481019282601f106200055b57805160ff19168380011785556200058c565b828001600101855582156200058c579182015b828111156200058b5782518255916020019190600101906200056e565b5b5090506200059b91906200059f565b5090565b620005c491905b80821115620005c0576000816000905550600101620005a6565b5090565b90565b613f2b80620005d76000396000f3fe608060405234801561001057600080fd5b50600436106101fb5760003560e01c80635ae25c2c1161011a578063a7ffa568116100ad578063c87b56dd1161007c578063c87b56dd14610b31578063d2cd0dfc14610bd8578063d840e2b614610c1a578063e27fd8ec14610c6a578063e985e9c514610cac576101fb565b8063a7ffa5681461097c578063a8622618146109cc578063b88d4fde14610a0e578063bcde049214610b13576101fb565b806370a08231116100e957806370a082311461083357806389cfbb3e1461088b57806395d89b41146108a9578063a22cb4651461092c576101fb565b80635ae25c2c14610727578063614a078e146107695780636352211e1461079757806365cf0b8314610805576101fb565b8063249aec3e1161019257806340d7f82c1161016157806340d7f82c146105d457806342842e0e146106205780634f6ccce71461068e578063555e73c8146106d0576101fb565b8063249aec3e146104b45780632f745c59146104e25780633d61e4cb1461054457806340c10f1914610572576101fb565b806310712130116101ce57806310712130146103a457806318160ddd146103e65780631d67a5f61461040457806323b872dd14610446576101fb565b806301ffc9a71461020057806306fdde0314610265578063081812fc146102e8578063095ea7b314610356575b600080fd5b61024b6004803603602081101561021657600080fd5b8101908080357bffffffffffffffffffffffffffffffffffffffffffffffffffffffff19169060200190929190505050610d28565b604051808215151515815260200191505060405180910390f35b61026d610d8f565b6040518080602001828103825283818151815260200191508051906020019080838360005b838110156102ad578082015181840152602081019050610292565b50505050905090810190601f1680156102da5780820380516001836020036101000a031916815260200191505b509250505060405180910390f35b610314600480360360208110156102fe57600080fd5b8101908080359060200190929190505050610e31565b604051808273ffffffffffffffffffffffffffffffffffffffff1673ffffffffffffffffffffffffffffffffffffffff16815260200191505060405180910390f35b6103a26004803603604081101561036c57600080fd5b81019080803573ffffffffffffffffffffffffffffffffffffffff16906020019092919080359060200190929190505050610ecc565b005b6103d0600480360360208110156103ba57600080fd5b81019080803590602001909291905050506110c2565b6040518082815260200191505060405180910390f35b6103ee6110ed565b6040518082815260200191505060405180910390f35b6104306004803603602081101561041a57600080fd5b81019080803590602001909291905050506110fa565b6040518082815260200191505060405180910390f35b6104b26004803603606081101561045c57600080fd5b81019080803573ffffffffffffffffffffffffffffffffffffffff169060200190929190803573ffffffffffffffffffffffffffffffffffffffff16906020019092919080359060200190929190505050611112565b005b6104e0600480360360208110156104ca57600080fd5b8101908080359060200190929190505050611181565b005b61052e600480360360408110156104f857600080fd5b81019080803573ffffffffffffffffffffffffffffffffffffffff169060200190929190803590602001909291905050506114b7565b6040518082815260200191505060405180910390f35b6105706004803603602081101561055a57600080fd5b8101908080359060200190929190505050611576565b005b6105be6004803603604081101561058857600080fd5b81019080803573ffffffffffffffffffffffffffffffffffffffff169060200190929190803590602001909291905050506118ac565b6040518082815260200191505060405180910390f35b61060a600480360360408110156105ea57600080fd5b8101908080359060200190929190803590602001909291905050506118e3565b6040518082815260200191505060405180910390f35b61068c6004803603606081101561063657600080fd5b81019080803573ffffffffffffffffffffffffffffffffffffffff169060200190929190803573ffffffffffffffffffffffffffffffffffffffff16906020019092919080359060200190929190505050611e4b565b005b6106ba600480360360208110156106a457600080fd5b8101908080359060200190929190505050611e6b565b6040518082815260200191505060405180910390f35b6106fc600480360360208110156106e657600080fd5b8101908080359060200190929190505050611eeb565b6040518085815260200184815260200183815260200182815260200194505050505060405180910390f35b6107536004803603602081101561073d57600080fd5b8101908080359060200190929190505050611f28565b6040518082815260200191505060405180910390f35b6107956004803603602081101561077f57600080fd5b8101908080359060200190929190505050611f40565b005b6107c3600480360360208110156107ad57600080fd5b8101908080359060200190929190505050612028565b604051808273ffffffffffffffffffffffffffffffffffffffff1673ffffffffffffffffffffffffffffffffffffffff16815260200191505060405180910390f35b6108316004803603602081101561081b57600080fd5b81019080803590602001909291905050506120f0565b005b6108756004803603602081101561084957600080fd5b81019080803573ffffffffffffffffffffffffffffffffffffffff1690602001909291905050506121e6565b6040518082815260200191505060405180910390f35b6108936122bb565b6040518082815260200191505060405180910390f35b6108b16124f5565b6040518080602001828103825283818151815260200191508051906020019080838360005b838110156108f15780820151818401526020810190506108d6565b50505050905090810190601f16801561091e5780820380516001836020036101000a031916815260200191505b509250505060405180910390f35b61097a6004803603604081101561094257600080fd5b81019080803573ffffffffffffffffffffffffffffffffffffffff169060200190929190803515159060200190929190505050612597565b005b6109b26004803603604081101561099257600080fd5b81019080803590602001909291908035906020019092919050505061273a565b604051808215151515815260200191505060405180910390f35b6109f8600480360360208110156109e257600080fd5b8101908080359060200190929190505050612769565b6040518082815260200191505060405180910390f35b610b1160048036036080811015610a2457600080fd5b81019080803573ffffffffffffffffffffffffffffffffffffffff169060200190929190803573ffffffffffffffffffffffffffffffffffffffff1690602001909291908035906020019092919080359060200190640100000000811115610a8b57600080fd5b820183602082011115610a9d57600080fd5b80359060200191846001830284011164010000000083111715610abf57600080fd5b91908080601f016020809104026020016040519081016040528093929190818152602001838380828437600081840152601f19601f820116905080830192505050505050509192919290505050612781565b005b610b1b6127f3565b6040518082815260200191505060405180910390f35b610b5d60048036036020811015610b4757600080fd5b8101908080359060200190929190505050612839565b6040518080602001828103825283818151815260200191508051906020019080838360005b83811015610b9d578082015181840152602081019050610b82565b50505050905090810190601f168015610bca5780820380516001836020036101000a031916815260200191505b509250505060405180910390f35b610c0460048036036020811015610bee57600080fd5b810190808035906020019092919050505061294c565b6040518082815260200191505060405180910390f35b610c5060048036036040811015610c3057600080fd5b810190808035906020019092919080359060200190929190505050612964565b604051808215151515815260200191505060405180910390f35b610c9660048036036020811015610c8057600080fd5b81019080803590602001909291905050506129a0565b6040518082815260200191505060405180910390f35b610d0e60048036036040811015610cc257600080fd5b81019080803573ffffffffffffffffffffffffffffffffffffffff169060200190929190803573ffffffffffffffffffffffffffffffffffffffff1690602001909291905050506129b8565b604051808215151515815260200191505060405180910390f35b6000806000837bffffffffffffffffffffffffffffffffffffffffffffffffffffffff19167bffffffffffffffffffffffffffffffffffffffffffffffffffffffff1916815260200190815260200160002060009054906101000a900460ff169050919050565b606060098054600181600116156101000203166002900480601f016020809104026020016040519081016040528092919081815260200182805460018160011615610100020316600290048015610e275780601f10610dfc57610100808354040283529160200191610e27565b820191906000526020600020905b815481529060010190602001808311610e0a57829003601f168201915b5050505050905090565b6000610e3c82612a4c565b610e91576040517f08c379a000000000000000000000000000000000000000000000000000000000815260040180806020018281038252602b815260200180613e73602b913960400191505060405180910390fd5b6002600083815260200190815260200160002060009054906101000a900473ffffffffffffffffffffffffffffffffffffffff169050919050565b6000610ed782612028565b90508073ffffffffffffffffffffffffffffffffffffffff168373ffffffffffffffffffffffffffffffffffffffff161415610f7b576040517f08c379a00000000000000000000000000000000000000000000000000000000081526004018080602001828103825260208152602001807f4b495031373a20617070726f76616c20746f2063757272656e74206f776e657281525060200191505060405180910390fd5b8073ffffffffffffffffffffffffffffffffffffffff163373ffffffffffffffffffffffffffffffffffffffff161480610fbb5750610fba81336129b8565b5b611010576040517f08c379a0000000000000000000000000000000000000000000000000000000008152600401808060200182810382526037815260200180613e9e6037913960400191505060405180910390fd5b826002600084815260200190815260200160002060006101000a81548173ffffffffffffffffffffffffffffffffffffffff021916908373ffffffffffffffffffffffffffffffffffffffff160217905550818373ffffffffffffffffffffffffffffffffffffffff168273ffffffffffffffffffffffffffffffffffffffff167f8c5be1e5ebec7d5bd14f71427d1e84f3dd0314c0f7b2291e5b200ac8c7c3b92560405160405180910390a4505050565b6000603f60018303815481106110d457fe5b9060005260206000209060040201600101549050919050565b6000600780549050905090565b602181600a811061110757fe5b016000915090505481565b61111c3382612abe565b611171576040517f08c379a0000000000000000000000000000000000000000000000000000000008152600401808060200182810382526030815260200180613d976030913960400191505060405180910390fd5b61117c838383612bb2565b505050565b61118a81612028565b73ffffffffffffffffffffffffffffffffffffffff163373ffffffffffffffffffffffffffffffffffffffff16146111c157600080fd5b600a603f60018303815481106111d357fe5b90600052602060002090600402016003015410611258576040517f08c379a000000000000000000000000000000000000000000000000000000000815260040180806020018281038252601f8152602001807f596f757220776561706f6e20646f65736e2774206e65656420746f206669780081525060200191505060405180910390fd5b600060346001603f600185038154811061126e57fe5b90600052602060002090600402016001015403600a811061128b57fe5b01549050603e60009054906101000a900473ffffffffffffffffffffffffffffffffffffffff1673ffffffffffffffffffffffffffffffffffffffff166370a08231336040518263ffffffff1660e01b8152600401808273ffffffffffffffffffffffffffffffffffffffff1673ffffffffffffffffffffffffffffffffffffffff16815260200191505060206040518083038186803b15801561132e57600080fd5b505afa158015611342573d6000803e3d6000fd5b505050506040513d602081101561135857600080fd5b81019080805190602001909291905050508111156113c1576040517f08c379a000000000000000000000000000000000000000000000000000000000815260040180806020018281038252602d815260200180613cb0602d913960400191505060405180910390fd5b600a603f60018403815481106113d357fe5b906000526020600020906004020160030181905550603e60009054906101000a900473ffffffffffffffffffffffffffffffffffffffff1673ffffffffffffffffffffffffffffffffffffffff16639dc29fac33670de0b6b3a764000084026040518363ffffffff1660e01b8152600401808373ffffffffffffffffffffffffffffffffffffffff1673ffffffffffffffffffffffffffffffffffffffff16815260200182815260200192505050600060405180830381600087803b15801561149b57600080fd5b505af11580156114af573d6000803e3d6000fd5b505050505050565b60006114c2836121e6565b8210611519576040517f08c379a000000000000000000000000000000000000000000000000000000000815260040180806020018281038252602a815260200180613d24602a913960400191505060405180910390fd5b600560008473ffffffffffffffffffffffffffffffffffffffff1673ffffffffffffffffffffffffffffffffffffffff168152602001908152602001600020828154811061156357fe5b9060005260206000200154905092915050565b61157f81612028565b73ffffffffffffffffffffffffffffffffffffffff163373ffffffffffffffffffffffffffffffffffffffff16146115b657600080fd5b600a603f60018303815481106115c857fe5b9060005260206000209060040201600201541061164d576040517f08c379a000000000000000000000000000000000000000000000000000000000815260040180806020018281038252601f8152602001807f596f757220776561706f6e20646f65736e2774206e65656420746f206669780081525060200191505060405180910390fd5b600060346001603f600185038154811061166357fe5b90600052602060002090600402016001015403600a811061168057fe5b01549050603e60009054906101000a900473ffffffffffffffffffffffffffffffffffffffff1673ffffffffffffffffffffffffffffffffffffffff166370a08231336040518263ffffffff1660e01b8152600401808273ffffffffffffffffffffffffffffffffffffffff1673ffffffffffffffffffffffffffffffffffffffff16815260200191505060206040518083038186803b15801561172357600080fd5b505afa158015611737573d6000803e3d6000fd5b505050506040513d602081101561174d57600080fd5b81019080805190602001909291905050508111156117b6576040517f08c379a0000000000000000000000000000000000000000000000000000000008152600401808060200182810382526030815260200180613c526030913960400191505060405180910390fd5b600a603f60018403815481106117c857fe5b906000526020600020906004020160020181905550603e60009054906101000a900473ffffffffffffffffffffffffffffffffffffffff1673ffffffffffffffffffffffffffffffffffffffff16639dc29fac33670de0b6b3a764000084026040518363ffffffff1660e01b8152600401808373ffffffffffffffffffffffffffffffffffffffff1673ffffffffffffffffffffffffffffffffffffffff16815260200182815260200192505050600060405180830381600087803b15801561189057600080fd5b505af11580156118a4573d6000803e3d6000fd5b505050505050565b60006118b8600c612bd6565b60006118c4600c612bec565b90506118d08482612bfa565b6118d983611f40565b8091505092915050565b60006118ee83612028565b73ffffffffffffffffffffffffffffffffffffffff163373ffffffffffffffffffffffffffffffffffffffff161461192557600080fd5b61192e82612028565b73ffffffffffffffffffffffffffffffffffffffff163373ffffffffffffffffffffffffffffffffffffffff161461196557600080fd5b818314156119be576040517f08c379a0000000000000000000000000000000000000000000000000000000008152600401808060200182810382526021815260200180613d4e6021913960400191505060405180910390fd5b6000603f60018503815481106119d057fe5b906000526020600020906004020190506000603f60018503815481106119f257fe5b906000526020600020906004020190508060010154826001015414611a7f576040517f08c379a000000000000000000000000000000000000000000000000000000000815260040180806020018281038252601a8152602001807f436f6d706f756e642053616d6520776561706f6e206c6576656c00000000000081525060200191505060405180910390fd5b6000826003015414158015611a9957506000816003015414155b611b0b576040517f08c379a000000000000000000000000000000000000000000000000000000000815260040180806020018281038252601d8152602001807f576561706f6e20636f6d706f756e64206e6565647320656e6368616e7400000081525060200191505060405180910390fd5b60006018600184600101540360098110611b2157fe5b01549050603e60009054906101000a900473ffffffffffffffffffffffffffffffffffffffff1673ffffffffffffffffffffffffffffffffffffffff166370a08231336040518263ffffffff1660e01b8152600401808273ffffffffffffffffffffffffffffffffffffffff1673ffffffffffffffffffffffffffffffffffffffff16815260200191505060206040518083038186803b158015611bc457600080fd5b505afa158015611bd8573d6000803e3d6000fd5b505050506040513d6020811015611bee57600080fd5b8101908080519060200190929190505050811115611c57576040517f08c379a0000000000000000000000000000000000000000000000000000000008152600401808060200182810382526023815260200180613c2f6023913960400191505060405180910390fd5b6000600f600185600101540360098110611c6d57fe5b015490506000600e546002611c80612c1b565b86600001548860000154010181611c9357fe5b0481611c9b57fe5b0690506001856003015403856003018190555060018460030154038460030181905550603e60009054906101000a900473ffffffffffffffffffffffffffffffffffffffff1673ffffffffffffffffffffffffffffffffffffffff16639dc29fac33670de0b6b3a764000086026040518363ffffffff1660e01b8152600401808373ffffffffffffffffffffffffffffffffffffffff1673ffffffffffffffffffffffffffffffffffffffff16815260200182815260200192505050600060405180830381600087803b158015611d7157600080fd5b505af1158015611d85573d6000803e3d6000fd5b50505050600082611d946127f3565b11611dee57611daa826001886001015401612c62565b90506001604060008b815260200190815260200160002060008a815260200190815260200160002060006101000a81548160ff021916908315150217905550611e3c565b611dfc828760010154612c62565b90506000604060008b815260200190815260200160002060008a815260200190815260200160002060006101000a81548160ff0219169083151502179055505b80965050505050505092915050565b611e6683838360405180602001604052806000815250612781565b505050565b6000611e756110ed565b8210611ecc576040517f08c379a000000000000000000000000000000000000000000000000000000000815260040180806020018281038252602b815260200180613e48602b913960400191505060405180910390fd5b60078281548110611ed957fe5b90600052602060002001549050919050565b603f8181548110611ef857fe5b90600052602060002090600402016000915090508060000154908060010154908060020154908060030154905084565b60188160098110611f3557fe5b016000915090505481565b6000611f4a612c1b565b905060648181611f5657fe5b068103905060006001603f6040518060800160405280858152602001868152602001600a8152602001600a815250908060018154018082558091505090600182039060005260206000209060040201600090919290919091506000820151816000015560208201518160010155604082015181600201556060820151816003015550500390507f5bd4bf80a2d2a135c85b92a11d79ad20c06c33b2f780af640e38be2aae2275de81838560405180848152602001838152602001828152602001935050505060405180910390a1505050565b6000806001600084815260200190815260200160002060009054906101000a900473ffffffffffffffffffffffffffffffffffffffff169050600073ffffffffffffffffffffffffffffffffffffffff168173ffffffffffffffffffffffffffffffffffffffff1614156120e7576040517f08c379a0000000000000000000000000000000000000000000000000000000008152600401808060200182810382526028815260200180613d6f6028913960400191505060405180910390fd5b80915050919050565b6120f981612028565b73ffffffffffffffffffffffffffffffffffffffff163373ffffffffffffffffffffffffffffffffffffffff1614612199576040517f08c379a000000000000000000000000000000000000000000000000000000000815260040180806020018281038252601f8152602001807f596f75206861766520746f207374616b696e6720796f757220776561706f6e0081525060200191505060405180910390fd5b6001603f60018303815481106121ab57fe5b90600052602060002090600402016002015403603f60018303815481106121ce57fe5b90600052602060002090600402016002018190555050565b60008073ffffffffffffffffffffffffffffffffffffffff168273ffffffffffffffffffffffffffffffffffffffff16141561226d576040517f08c379a0000000000000000000000000000000000000000000000000000000008152600401808060200182810382526029815260200180613df76029913960400191505060405180910390fd5b6122b4600360008473ffffffffffffffffffffffffffffffffffffffff1673ffffffffffffffffffffffffffffffffffffffff168152602001908152602001600020612bec565b9050919050565b6000603e60009054906101000a900473ffffffffffffffffffffffffffffffffffffffff1673ffffffffffffffffffffffffffffffffffffffff166370a08231336040518263ffffffff1660e01b8152600401808273ffffffffffffffffffffffffffffffffffffffff1673ffffffffffffffffffffffffffffffffffffffff16815260200191505060206040518083038186803b15801561235c57600080fd5b505afa158015612370573d6000803e3d6000fd5b505050506040513d602081101561238657600080fd5b81019080805190602001909291905050506802b5e3af16b188000011156123f8576040517f08c379a0000000000000000000000000000000000000000000000000000000008152600401808060200182810382526024815260200180613d006024913960400191505060405180910390fd5b603e60009054906101000a900473ffffffffffffffffffffffffffffffffffffffff1673ffffffffffffffffffffffffffffffffffffffff16639dc29fac336802b5e3af16b18800006040518363ffffffff1660e01b8152600401808373ffffffffffffffffffffffffffffffffffffffff1673ffffffffffffffffffffffffffffffffffffffff16815260200182815260200192505050600060405180830381600087803b1580156124aa57600080fd5b505af11580156124be573d6000803e3d6000fd5b505050506124cc600c612bd6565b60006124d8600c612bec565b90506124e43382612bfa565b6124ee6001611f40565b8091505090565b6060600a8054600181600116156101000203166002900480601f01602080910402602001604051908101604052809291908181526020018280546001816001161561010002031660029004801561258d5780601f106125625761010080835404028352916020019161258d565b820191906000526020600020905b81548152906001019060200180831161257057829003601f168201915b5050505050905090565b3373ffffffffffffffffffffffffffffffffffffffff168273ffffffffffffffffffffffffffffffffffffffff161415612639576040517f08c379a00000000000000000000000000000000000000000000000000000000081526004018080602001828103825260188152602001807f4b495031373a20617070726f766520746f2063616c6c6572000000000000000081525060200191505060405180910390fd5b80600460003373ffffffffffffffffffffffffffffffffffffffff1673ffffffffffffffffffffffffffffffffffffffff16815260200190815260200160002060008473ffffffffffffffffffffffffffffffffffffffff1673ffffffffffffffffffffffffffffffffffffffff16815260200190815260200160002060006101000a81548160ff0219169083151502179055508173ffffffffffffffffffffffffffffffffffffffff163373ffffffffffffffffffffffffffffffffffffffff167f17307eab39ab6107e8899845ad3d59bd9653f200f220920489ca2b5937696c3183604051808215151515815260200191505060405180910390a35050565b60406020528160005260406000206020528060005260406000206000915091509054906101000a900460ff1681565b602b816009811061277657fe5b016000915090505481565b61278c848484611112565b61279884848484612d59565b6127ed576040517f08c379a0000000000000000000000000000000000000000000000000000000008152600401808060200182810382526030815260200180613dc76030913960400191505060405180910390fd5b50505050565b600080429050600081604051602001808281526020019150506040516020818303038152906040528051906020012060001c90506064818161283157fe5b069250505090565b606061284482612a4c565b612899576040517f08c379a000000000000000000000000000000000000000000000000000000000815260040180806020018281038252602e815260200180613c82602e913960400191505060405180910390fd5b600b60008381526020019081526020016000208054600181600116156101000203166002900480601f0160208091040260200160405190810160405280929190818152602001828054600181600116156101000203166002900480156129405780601f1061291557610100808354040283529160200191612940565b820191906000526020600020905b81548152906001019060200180831161292357829003601f168201915b50505050509050919050565b603481600a811061295957fe5b016000915090505481565b600060406000848152602001908152602001600020600083815260200190815260200160002060009054906101000a900460ff16905092915050565b600f81600981106129ad57fe5b016000915090505481565b6000600460008473ffffffffffffffffffffffffffffffffffffffff1673ffffffffffffffffffffffffffffffffffffffff16815260200190815260200160002060008373ffffffffffffffffffffffffffffffffffffffff1673ffffffffffffffffffffffffffffffffffffffff16815260200190815260200160002060009054906101000a900460ff16905092915050565b6000806001600084815260200190815260200160002060009054906101000a900473ffffffffffffffffffffffffffffffffffffffff169050600073ffffffffffffffffffffffffffffffffffffffff168173ffffffffffffffffffffffffffffffffffffffff161415915050919050565b6000612ac982612a4c565b612b1e576040517f08c379a000000000000000000000000000000000000000000000000000000000815260040180806020018281038252602b815260200180613ed5602b913960400191505060405180910390fd5b6000612b2983612028565b90508073ffffffffffffffffffffffffffffffffffffffff168473ffffffffffffffffffffffffffffffffffffffff161480612b9857508373ffffffffffffffffffffffffffffffffffffffff16612b8084610e31565b73ffffffffffffffffffffffffffffffffffffffff16145b80612ba95750612ba881856129b8565b5b91505092915050565b612bbd8383836132bb565b612bc78382613516565b612bd182826136b4565b505050565b6001816000016000828254019250508190555050565b600081600001549050919050565b612c04828261377b565b612c0e82826136b4565b612c1781613993565b5050565b600080429050600081604051602001808281526020019150506040516020818303038152906040528051906020012060001c9050600e548181612c5a57fe5b069250505090565b6000612c6e600c612bd6565b60006001603f6040518060800160405280878152602001868152602001600a8152602001600a815250908060018154018082558091505090600182039060005260206000209060040201600090919290919091506000820151816000015560208201518160010155604082015181600201556060820151816003015550500390506000612cfb600c612bec565b9050612d073382612bfa565b7f5bd4bf80a2d2a135c85b92a11d79ad20c06c33b2f780af640e38be2aae2275de82868660405180848152602001838152602001828152602001935050505060405180910390a1809250505092915050565b6000806060612d7d8673ffffffffffffffffffffffffffffffffffffffff166139df565b612d8c576001925050506132b3565b8573ffffffffffffffffffffffffffffffffffffffff1663150b7a0260e01b33898888604051602401808573ffffffffffffffffffffffffffffffffffffffff1673ffffffffffffffffffffffffffffffffffffffff1681526020018473ffffffffffffffffffffffffffffffffffffffff1673ffffffffffffffffffffffffffffffffffffffff16815260200183815260200180602001828103825283818151815260200191508051906020019080838360005b83811015612e5c578082015181840152602081019050612e41565b50505050905090810190601f168015612e895780820380516001836020036101000a031916815260200191505b5095505050505050604051602081830303815290604052907bffffffffffffffffffffffffffffffffffffffffffffffffffffffff19166020820180517bffffffffffffffffffffffffffffffffffffffffffffffffffffffff83818316178352505050506040518082805190602001908083835b60208310612f215780518252602082019150602081019050602083039250612efe565b6001836020036101000a0380198251168184511680821785525050505050509050019150506000604051808303816000865af19150503d8060008114612f83576040519150601f19603f3d011682016040523d82523d6000602084013e612f88565b606091505b508092508193505050600081511415801561300c575063150b7a0260e01b7bffffffffffffffffffffffffffffffffffffffffffffffffffffffff1916818060200190516020811015612fda57600080fd5b81019080805190602001909291905050507bffffffffffffffffffffffffffffffffffffffffffffffffffffffff1916145b1561301c576001925050506132b3565b8573ffffffffffffffffffffffffffffffffffffffff16636745782b60e01b33898888604051602401808573ffffffffffffffffffffffffffffffffffffffff1673ffffffffffffffffffffffffffffffffffffffff1681526020018473ffffffffffffffffffffffffffffffffffffffff1673ffffffffffffffffffffffffffffffffffffffff16815260200183815260200180602001828103825283818151815260200191508051906020019080838360005b838110156130ec5780820151818401526020810190506130d1565b50505050905090810190601f1680156131195780820380516001836020036101000a031916815260200191505b5095505050505050604051602081830303815290604052907bffffffffffffffffffffffffffffffffffffffffffffffffffffffff19166020820180517bffffffffffffffffffffffffffffffffffffffffffffffffffffffff83818316178352505050506040518082805190602001908083835b602083106131b1578051825260208201915060208101905060208303925061318e565b6001836020036101000a0380198251168184511680821785525050505050509050019150506000604051808303816000865af19150503d8060008114613213576040519150601f19603f3d011682016040523d82523d6000602084013e613218565b606091505b508092508193505050600081511415801561329c5750636745782b60e01b7bffffffffffffffffffffffffffffffffffffffffffffffffffffffff191681806020019051602081101561326a57600080fd5b81019080805190602001909291905050507bffffffffffffffffffffffffffffffffffffffffffffffffffffffff1916145b156132ac576001925050506132b3565b6000925050505b949350505050565b8273ffffffffffffffffffffffffffffffffffffffff166132db82612028565b73ffffffffffffffffffffffffffffffffffffffff1614613347576040517f08c379a0000000000000000000000000000000000000000000000000000000008152600401808060200182810382526028815260200180613e206028913960400191505060405180910390fd5b600073ffffffffffffffffffffffffffffffffffffffff168273ffffffffffffffffffffffffffffffffffffffff1614156133cd576040517f08c379a0000000000000000000000000000000000000000000000000000000008152600401808060200182810382526023815260200180613cdd6023913960400191505060405180910390fd5b6133d6816139f2565b61341d600360008573ffffffffffffffffffffffffffffffffffffffff1673ffffffffffffffffffffffffffffffffffffffff168152602001908152602001600020613ab0565b613464600360008473ffffffffffffffffffffffffffffffffffffffff1673ffffffffffffffffffffffffffffffffffffffff168152602001908152602001600020612bd6565b816001600083815260200190815260200160002060006101000a81548173ffffffffffffffffffffffffffffffffffffffff021916908373ffffffffffffffffffffffffffffffffffffffff160217905550808273ffffffffffffffffffffffffffffffffffffffff168473ffffffffffffffffffffffffffffffffffffffff167fddf252ad1be2c89b69c2b068fc378daa952ba7f163c4a11628f55a4df523b3ef60405160405180910390a4505050565b600061356e6001600560008673ffffffffffffffffffffffffffffffffffffffff1673ffffffffffffffffffffffffffffffffffffffff16815260200190815260200160002080549050613ad390919063ffffffff16565b905060006006600084815260200190815260200160002054905081811461365b576000600560008673ffffffffffffffffffffffffffffffffffffffff1673ffffffffffffffffffffffffffffffffffffffff16815260200190815260200160002083815481106135db57fe5b9060005260206000200154905080600560008773ffffffffffffffffffffffffffffffffffffffff1673ffffffffffffffffffffffffffffffffffffffff168152602001908152602001600020838154811061363357fe5b9060005260206000200181905550816006600083815260200190815260200160002081905550505b600560008573ffffffffffffffffffffffffffffffffffffffff1673ffffffffffffffffffffffffffffffffffffffff1681526020019081526020016000208054809190600190036136ad9190613bdd565b5050505050565b600560008373ffffffffffffffffffffffffffffffffffffffff1673ffffffffffffffffffffffffffffffffffffffff168152602001908152602001600020805490506006600083815260200190815260200160002081905550600560008373ffffffffffffffffffffffffffffffffffffffff1673ffffffffffffffffffffffffffffffffffffffff1681526020019081526020016000208190806001815401808255809150509060018203906000526020600020016000909192909190915055505050565b600073ffffffffffffffffffffffffffffffffffffffff168273ffffffffffffffffffffffffffffffffffffffff16141561381e576040517f08c379a000000000000000000000000000000000000000000000000000000000815260040180806020018281038252601f8152602001807f4b495031373a206d696e7420746f20746865207a65726f20616464726573730081525060200191505060405180910390fd5b61382781612a4c565b1561389a576040517f08c379a000000000000000000000000000000000000000000000000000000000815260040180806020018281038252601b8152602001807f4b495031373a20746f6b656e20616c7265616479206d696e746564000000000081525060200191505060405180910390fd5b816001600083815260200190815260200160002060006101000a81548173ffffffffffffffffffffffffffffffffffffffff021916908373ffffffffffffffffffffffffffffffffffffffff160217905550613933600360008473ffffffffffffffffffffffffffffffffffffffff1673ffffffffffffffffffffffffffffffffffffffff168152602001908152602001600020612bd6565b808273ffffffffffffffffffffffffffffffffffffffff16600073ffffffffffffffffffffffffffffffffffffffff167fddf252ad1be2c89b69c2b068fc378daa952ba7f163c4a11628f55a4df523b3ef60405160405180910390a45050565b6007805490506008600083815260200190815260200160002081905550600781908060018154018082558091505090600182039060005260206000200160009091929091909150555050565b600080823b905060008111915050919050565b600073ffffffffffffffffffffffffffffffffffffffff166002600083815260200190815260200160002060009054906101000a900473ffffffffffffffffffffffffffffffffffffffff1673ffffffffffffffffffffffffffffffffffffffff1614613aad5760006002600083815260200190815260200160002060006101000a81548173ffffffffffffffffffffffffffffffffffffffff021916908373ffffffffffffffffffffffffffffffffffffffff1602179055505b50565b613ac860018260000154613ad390919063ffffffff16565b816000018190555050565b6000613b1583836040518060400160405280601e81526020017f536166654d6174683a207375627472616374696f6e206f766572666c6f770000815250613b1d565b905092915050565b6000838311158290613bca576040517f08c379a00000000000000000000000000000000000000000000000000000000081526004018080602001828103825283818151815260200191508051906020019080838360005b83811015613b8f578082015181840152602081019050613b74565b50505050905090810190601f168015613bbc5780820380516001836020036101000a031916815260200191505b509250505060405180910390fd5b5060008385039050809150509392505050565b815481835581811115613c0457818360005260206000209182019101613c039190613c09565b5b505050565b613c2b91905b80821115613c27576000816000905550600101613c0f565b5090565b9056fe596f75206d75737420686176652055525520746f6b656e20746f20636f6d706f756e64596f75206d757374206861766520656e6f7567682055525520746f6b656e20746f20666978206475726162696c6974794b495031374d657461646174613a2055524920717565727920666f72206e6f6e6578697374656e7420746f6b656e596f75206d757374206861766520656e6f7567682055525520746f6b656e20746f2066697820656e6368616e744b495031373a207472616e7366657220746f20746865207a65726f20616464726573734e6f7420656e6f75676820746f6b656e20746f2062757920626173696320776561706f6e4b49503137456e756d657261626c653a206f776e657220696e646578206f7574206f6620626f756e647343616e206e6f7420636f6d706f756e6420776974682053616d6520776561706f6e4b495031373a206f776e657220717565727920666f72206e6f6e6578697374656e7420746f6b656e4b495031373a207472616e736665722063616c6c6572206973206e6f74206f776e6572206e6f7220617070726f7665644b495031373a207472616e7366657220746f206e6f6e204b49503137526563656976657220696d706c656d656e7465724b495031373a2062616c616e636520717565727920666f7220746865207a65726f20616464726573734b495031373a207472616e73666572206f6620746f6b656e2074686174206973206e6f74206f776e4b49503137456e756d657261626c653a20676c6f62616c20696e646578206f7574206f6620626f756e64734b495031373a20617070726f76656420717565727920666f72206e6f6e6578697374656e7420746f6b656e4b495031373a20617070726f76652063616c6c6572206973206e6f74206f776e6572206e6f7220617070726f76656420666f7220616c6c4b495031373a206f70657261746f7220717565727920666f72206e6f6e6578697374656e7420746f6b656ea165627a7a723058200284a8ee72db74d0b7e4c65f1eb039c6fa1ea10476ab3e28cd3bc4f562e3e62c0029",
  "source": "// SPDX-License-Identifier: MIT\npragma solidity >=0.4.22 <0.9.0;\n\nimport \"@klaytn/contracts/token/KIP17/KIP17Full.sol\";\nimport \"@klaytn/contracts/drafts/Counters.sol\";\nimport \"./Token.sol\";\n\ncontract NFT is KIP17Full{\n  using Counters for Counters.Counter;\n  Counters.Counter private _Ids;\n\n    uint256 weaponDigits = 16;\n    uint256 weaponModulus = 10 ** weaponDigits;\n    \n    uint256 [9] public percentage; //  \n    uint256 [9] public tokenToCompound; //   \n    uint256 [10] public tokenToFixDurability; //    \n    uint256 [9] public tokenToFixEnchant; //     \n    uint256 [10] public tokenToFix; //    \n    // uint256 [9] public tokenToFixEnchant; //     \n\n    Token token;\n\n    struct Weapon {\n        uint256 weaponType; // dna \n        uint256 weaponLevel; // \n        uint256 durability; //  - staking\n        uint256 enchant; // - compound\n    }\n\n    Weapon[] public weapons;\n\n    mapping(uint256 => mapping(uint256 => bool)) public compoundResult;\n\n    event NewWeapon(uint256 weaponId, uint256 weaponType, uint256 weaponLevel);\n\n\n    constructor(address _token) public KIP17Full(\"DND-WEAPON\", \"WEAPON\"){\n        percentage[0] = 99;\n        percentage[1] = 79;\n        percentage[2] = 69;\n        percentage[3] = 49;\n        percentage[4] = 39;\n        percentage[5] = 29;\n        percentage[6] = 19;\n        percentage[7] = 9;\n        percentage[8] = 4;\n\n        tokenToCompound[0] = 50;\n        tokenToCompound[1] = 100;\n        tokenToCompound[2] = 200;\n        tokenToCompound[3] = 300;\n        tokenToCompound[4] = 500;\n        tokenToCompound[5] = 700;\n        tokenToCompound[6] = 1000;\n        tokenToCompound[7] = 3000;\n        tokenToCompound[8] = 5000;\n\n        // ,       \n        tokenToFix[0] = 10;\n        tokenToFix[1] = 20;\n        tokenToFix[2] = 30;\n        tokenToFix[3] = 50;\n        tokenToFix[4] = 80;\n        tokenToFix[5] = 110;\n        tokenToFix[6] = 190;\n        tokenToFix[7] = 300;\n        tokenToFix[8] = 490;\n        tokenToFix[9] = 750;\n        // tokenToFixEnchant[0~8] = ??;\n\n        token = Token(_token);\n        \n    }\n\n\n    function mint (address recipient, uint256 _weaponLevel) public returns (uint256) {\n    _Ids.increment();\n\n    uint256 newItemId = _Ids.current();\n    _mint(recipient, newItemId);\n\n    createRandomWeapon(_weaponLevel);\n\n    return newItemId;\n     }\n    \n    //   \n    function buyBasicWeapon () public returns (uint256){\n        //  50    \n        require(50 * 10**18<= token.balanceOf(msg.sender), \"Not enough token to buy basic weapon\");\n        \n        token.burn(msg.sender, 50 * 10**18);\n        \n        _Ids.increment();\n\n        uint256 newItemId = _Ids.current();\n        _mint(msg.sender, newItemId);\n\n        createRandomWeapon(1);\n\n        return newItemId;\n    }\n\n    //   \n    function _createWeapon(uint256 _weaponType, uint256 _weaponLevel) internal returns(uint256) {\n         _Ids.increment();\n\n        uint256 id = weapons.push(Weapon(_weaponType, _weaponLevel, 10, 10)) - 1;\n        uint256 newItemId = _Ids.current();\n        \n        _mint(msg.sender, newItemId);\n    \n        emit NewWeapon(id, _weaponType, _weaponLevel);\n        return newItemId;\n    }\n\n    //    16  \n    function _generateRandomType() private view returns (uint256) {\n      //      . \n        uint256 randomNumFromBlock = block.timestamp; \n        uint256 randomNum = uint256(keccak256(abi.encodePacked(randomNumFromBlock)));\n        return randomNum % weaponModulus;\n    }\n\n    function createRandomWeapon(uint256 _weaponLevel) public {\n        uint256 randomType = _generateRandomType();\n        randomType = randomType - randomType % 100; // \n        uint256 id = weapons.push(Weapon(randomType, _weaponLevel, 10, 10)) - 1;\n\n        emit NewWeapon(id, randomType, _weaponLevel);\n    }\n\n    //    2  \n    function createRandomNum() public view returns(uint256) {\n        uint256 randomNumFromBlock = block.timestamp;\n        uint256 randomNum = uint256(keccak256(abi.encodePacked(randomNumFromBlock)));\n\n        return randomNum % 100;\n    }\n\n    function compoundWeapon(uint256 _weapon1Id, uint256 _weapon2Id) public returns(uint256) { // targetType  weaponId 2\n    //  2   \n    require(msg.sender == ownerOf(_weapon1Id));\n    require(msg.sender == ownerOf(_weapon2Id));\n\n    //  id nft \n    require(_weapon1Id != _weapon2Id , \"Can not compound with Same weapon\");\n    \n    //     \n    Weapon storage myWeapon1 = weapons[_weapon1Id - 1];\n    Weapon storage myWeapon2 = weapons[_weapon2Id - 1];\n    require(myWeapon1.weaponLevel == myWeapon2.weaponLevel, \"Compound Same weapon level\");\n\n    //   enchant( ) \n    require(myWeapon1.enchant != 0 && myWeapon2.enchant != 0, \"Weapon compound needs enchant\");\n    \n    //       \n    uint256 spendToken = tokenToCompound[myWeapon1.weaponLevel - 1];\n    require(spendToken <= token.balanceOf(msg.sender), \"You must have URU token to compound\");\n\n    //         \n    // weapon1       ,  \n    uint256 compoundPercentage = percentage[myWeapon1.weaponLevel - 1];\n\n    uint256 newType = (myWeapon1.weaponType + myWeapon2.weaponType + _generateRandomType()) / 2 % weaponModulus;\n\n    //  enchant( ) 1 \n    myWeapon1.enchant = myWeapon1.enchant - 1;\n    myWeapon2.enchant = myWeapon2.enchant - 1;\n\n    //  msg.sender  (burn)\n    token.burn(msg.sender, spendToken * 10**18);\n    \n    uint256 _tokenId;\n    //    ,   \n    if(createRandomNum() <= compoundPercentage) {\n        _tokenId = _createWeapon(newType, myWeapon1.weaponLevel + 1);\n        compoundResult[_weapon1Id][_weapon2Id] = true;\n    } else {\n        _tokenId = _createWeapon(newType, myWeapon1.weaponLevel);\n        compoundResult[_weapon1Id][_weapon2Id] = false;\n    }\n    return _tokenId;\n    \n    }\n    function getCompoundResult (uint256 _weapon1Id, uint256 _weapon2Id) public view returns (bool) {\n        return compoundResult[_weapon1Id][_weapon2Id];\n    }\n    //     (getter)\n    function getWeaponLevel (uint256 _weaponId) public view returns(uint256) {\n        return weapons[_weaponId - 1].weaponLevel;\n    }\n\n    // staking  \n    function stakingWeapon (uint256 _weaponId) public {\n        //    \n        require(msg.sender == ownerOf(_weaponId), \"You have to staking your weapon\");\n\n        weapons[_weaponId - 1].durability = weapons[_weaponId - 1].durability - 1;\n    }\n\n    // staking  \n    function fixWeaponDurability (uint256 _weaponId) public {\n        //    \n        require(msg.sender == ownerOf(_weaponId));\n        \n        //  3  \n        require(weapons[_weaponId -1].durability < 10, \"Your weapon doesn't need to fix\");\n\n        //     \n        uint256 spendToken = tokenToFix[weapons[_weaponId - 1].weaponLevel - 1];\n        require(spendToken <= token.balanceOf(msg.sender), \"You must have enough URU token to fix durability\");\n        \n        \n        weapons[_weaponId - 1].durability = 10;\n\n        token.burn(msg.sender, spendToken * 10**18);\n    }\n\n\n    // enchant  \n    function fixWeaponEnchant (uint256 _weaponId) public {\n        //    \n        require(msg.sender == ownerOf(_weaponId));\n\n        //  3  \n        require(weapons[_weaponId -1].enchant < 10, \"Your weapon doesn't need to fix\");\n        \n        //     \n        uint256 spendToken = tokenToFix[weapons[_weaponId - 1].weaponLevel - 1];\n        require(spendToken <= token.balanceOf(msg.sender), \"You must have enough URU token to fix enchant\");\n        \n        \n        weapons[_weaponId - 1].enchant = 10;\n\n        token.burn(msg.sender, spendToken * 10**18);\n    }\n\n    //  msg.sender      (getter)\n\n}",
  "sourcePath": "/Users/jhka/Documents/fdongfdong/klaytn_swap_project/beb-03-DND/contract/contracts/NFT.sol",
  "compiler": {
    "name": "solc",
    "version": "0.5.6+commit.b259423e.Emscripten.clang"
  },
  "schemaVersion": "3.3.3",
  "updatedAt": "2022-07-24T12:43:09.672Z",
  "devdoc": {
    "methods": {
      "approve(address,uint256)": {
        "details": "Approves another address to transfer the given token ID The zero address indicates there is no approved address. There can only be one approved address per token at a given time. Can only be called by the token owner or an approved operator.",
        "params": {
          "to": "address to be approved for the given token ID",
          "tokenId": "uint256 ID of the token to be approved"
        }
      },
      "balanceOf(address)": {
        "details": "Gets the balance of the specified address.",
        "params": {
          "owner": "address to query the balance of"
        },
        "return": "uint256 representing the amount owned by the passed address"
      },
      "getApproved(uint256)": {
        "details": "Gets the approved address for a token ID, or zero if no address set Reverts if the token ID does not exist.",
        "params": {
          "tokenId": "uint256 ID of the token to query the approval of"
        },
        "return": "address currently approved for the given token ID"
      },
      "isApprovedForAll(address,address)": {
        "details": "Tells whether an operator is approved by a given owner.",
        "params": {
          "operator": "operator address which you want to query the approval of",
          "owner": "owner address which you want to query the approval of"
        },
        "return": "bool whether the given operator is approved by the given owner"
      },
      "name()": {
        "details": "Gets the token name.",
        "return": "string representing the token name"
      },
      "ownerOf(uint256)": {
        "details": "Gets the owner of the specified token ID.",
        "params": {
          "tokenId": "uint256 ID of the token to query the owner of"
        },
        "return": "address currently marked as the owner of the given token ID"
      },
      "safeTransferFrom(address,address,uint256)": {
        "details": "Safely transfers the ownership of a given token ID to another address If the target address is a contract, it must implement `onKIP17Received`, which is called upon a safe transfer, and return the magic value `bytes4(keccak256(\"onKIP17Received(address,address,uint256,bytes)\"))`; otherwise, the transfer is reverted. Requires the msg.sender to be the owner, approved, or operator",
        "params": {
          "from": "current owner of the token",
          "to": "address to receive the ownership of the given token ID",
          "tokenId": "uint256 ID of the token to be transferred"
        }
      },
      "safeTransferFrom(address,address,uint256,bytes)": {
        "details": "Safely transfers the ownership of a given token ID to another address If the target address is a contract, it must implement `onKIP17Received`, which is called upon a safe transfer, and return the magic value `bytes4(keccak256(\"onKIP17Received(address,address,uint256,bytes)\"))`; otherwise, the transfer is reverted. Requires the msg.sender to be the owner, approved, or operator",
        "params": {
          "_data": "bytes data to send along with a safe transfer check",
          "from": "current owner of the token",
          "to": "address to receive the ownership of the given token ID",
          "tokenId": "uint256 ID of the token to be transferred"
        }
      },
      "setApprovalForAll(address,bool)": {
        "details": "Sets or unsets the approval of a given operator An operator is allowed to transfer all tokens of the sender on their behalf.",
        "params": {
          "approved": "representing the status of the approval to be set",
          "to": "operator address to set the approval"
        }
      },
      "supportsInterface(bytes4)": {
        "details": "See `IKIP13.supportsInterface`.     * Time complexity O(1), guaranteed to always use less than 30 000 gas."
      },
      "symbol()": {
        "details": "Gets the token symbol.",
        "return": "string representing the token symbol"
      },
      "tokenByIndex(uint256)": {
        "details": "Gets the token ID at a given index of all the tokens in this contract Reverts if the index is greater or equal to the total number of tokens.",
        "params": {
          "index": "uint256 representing the index to be accessed of the tokens list"
        },
        "return": "uint256 token ID at the given index of the tokens list"
      },
      "tokenOfOwnerByIndex(address,uint256)": {
        "details": "Gets the token ID at a given index of the tokens list of the requested owner.",
        "params": {
          "index": "uint256 representing the index to be accessed of the requested tokens list",
          "owner": "address owning the tokens list to be accessed"
        },
        "return": "uint256 token ID at the given index of the tokens list owned by the requested address"
      },
      "tokenURI(uint256)": {
        "details": "Returns an URI for a given token ID. Throws if the token ID does not exist. May return an empty string.",
        "params": {
          "tokenId": "uint256 ID of the token to query"
        }
      },
      "totalSupply()": {
        "details": "Gets the total amount of tokens stored by the contract.",
        "return": "uint256 representing the total amount of tokens"
      },
      "transferFrom(address,address,uint256)": {
        "details": "Transfers the ownership of a given token ID to another address. Usage of this method is discouraged, use `safeTransferFrom` whenever possible. Requires the msg.sender to be the owner, approved, or operator.",
        "params": {
          "from": "current owner of the token",
          "to": "address to receive the ownership of the given token ID",
          "tokenId": "uint256 ID of the token to be transferred"
        }
      }
    }
  },
  "userdoc": {
    "methods": {}
  }
}